{
  "contractName": "ERC20Contract",
  "abi": [
    {
      "constant": true,
      "inputs": [],
      "name": "name",
      "outputs": [
        {
          "name": "",
          "type": "string"
        }
      ],
      "payable": false,
      "stateMutability": "view",
      "type": "function"
    },
    {
      "constant": false,
      "inputs": [
        {
          "name": "_spender",
          "type": "address"
        },
        {
          "name": "_amount",
          "type": "uint256"
        }
      ],
      "name": "approve",
      "outputs": [
        {
          "name": "success",
          "type": "bool"
        }
      ],
      "payable": true,
      "stateMutability": "payable",
      "type": "function"
    },
    {
      "constant": true,
      "inputs": [],
      "name": "totalSupply",
      "outputs": [
        {
          "name": "_totalSupply",
          "type": "uint256"
        }
      ],
      "payable": false,
      "stateMutability": "view",
      "type": "function"
    },
    {
      "constant": false,
      "inputs": [
        {
          "name": "_from",
          "type": "address"
        },
        {
          "name": "_to",
          "type": "address"
        },
        {
          "name": "_amount",
          "type": "uint256"
        }
      ],
      "name": "transferFrom",
      "outputs": [
        {
          "name": "success",
          "type": "bool"
        }
      ],
      "payable": true,
      "stateMutability": "payable",
      "type": "function"
    },
    {
      "constant": false,
      "inputs": [
        {
          "name": "value",
          "type": "uint256"
        }
      ],
      "name": "withdraw",
      "outputs": [
        {
          "name": "",
          "type": "bool"
        }
      ],
      "payable": true,
      "stateMutability": "payable",
      "type": "function"
    },
    {
      "constant": true,
      "inputs": [],
      "name": "decimals",
      "outputs": [
        {
          "name": "",
          "type": "uint256"
        }
      ],
      "payable": false,
      "stateMutability": "view",
      "type": "function"
    },
    {
      "constant": true,
      "inputs": [],
      "name": "minTokensForSale",
      "outputs": [
        {
          "name": "",
          "type": "uint256"
        }
      ],
      "payable": false,
      "stateMutability": "view",
      "type": "function"
    },
    {
      "constant": false,
      "inputs": [],
      "name": "purchase",
      "outputs": [
        {
          "name": "tokens",
          "type": "uint256"
        }
      ],
      "payable": true,
      "stateMutability": "payable",
      "type": "function"
    },
    {
      "constant": true,
      "inputs": [
        {
          "name": "_owner",
          "type": "address"
        }
      ],
      "name": "balanceOf",
      "outputs": [
        {
          "name": "balance",
          "type": "uint256"
        }
      ],
      "payable": false,
      "stateMutability": "view",
      "type": "function"
    },
    {
      "constant": true,
      "inputs": [],
      "name": "tokenPrice",
      "outputs": [
        {
          "name": "",
          "type": "uint256"
        }
      ],
      "payable": false,
      "stateMutability": "view",
      "type": "function"
    },
    {
      "constant": true,
      "inputs": [],
      "name": "owner",
      "outputs": [
        {
          "name": "",
          "type": "address"
        }
      ],
      "payable": false,
      "stateMutability": "view",
      "type": "function"
    },
    {
      "constant": true,
      "inputs": [],
      "name": "symbol",
      "outputs": [
        {
          "name": "",
          "type": "string"
        }
      ],
      "payable": false,
      "stateMutability": "view",
      "type": "function"
    },
    {
      "constant": false,
      "inputs": [
        {
          "name": "_to",
          "type": "address"
        },
        {
          "name": "_value",
          "type": "uint256"
        }
      ],
      "name": "transfer",
      "outputs": [
        {
          "name": "success",
          "type": "bool"
        }
      ],
      "payable": false,
      "stateMutability": "nonpayable",
      "type": "function"
    },
    {
      "constant": true,
      "inputs": [
        {
          "name": "_owner",
          "type": "address"
        },
        {
          "name": "_spender",
          "type": "address"
        }
      ],
      "name": "allowance",
      "outputs": [
        {
          "name": "remaining",
          "type": "uint256"
        }
      ],
      "payable": false,
      "stateMutability": "view",
      "type": "function"
    },
    {
      "constant": true,
      "inputs": [],
      "name": "totalNumberOfTokens",
      "outputs": [
        {
          "name": "",
          "type": "uint256"
        }
      ],
      "payable": false,
      "stateMutability": "view",
      "type": "function"
    },
    {
      "constant": false,
      "inputs": [
        {
          "name": "newOwner",
          "type": "address"
        }
      ],
      "name": "transferOwnership",
      "outputs": [],
      "payable": false,
      "stateMutability": "nonpayable",
      "type": "function"
    },
    {
      "inputs": [],
      "payable": false,
      "stateMutability": "nonpayable",
      "type": "constructor"
    },
    {
      "anonymous": false,
      "inputs": [
        {
          "indexed": true,
          "name": "_from",
          "type": "address"
        },
        {
          "indexed": true,
          "name": "_to",
          "type": "address"
        },
        {
          "indexed": false,
          "name": "_value",
          "type": "uint256"
        }
      ],
      "name": "Transfer",
      "type": "event"
    },
    {
      "anonymous": false,
      "inputs": [
        {
          "indexed": true,
          "name": "_owner",
          "type": "address"
        },
        {
          "indexed": true,
          "name": "_spender",
          "type": "address"
        },
        {
          "indexed": false,
          "name": "_value",
          "type": "uint256"
        }
      ],
      "name": "Approval",
      "type": "event"
    }
  ],
  "bytecode": "0x6060604052341561000f57600080fd5b336000806101000a81548173ffffffffffffffffffffffffffffffffffffffff021916908373ffffffffffffffffffffffffffffffffffffffff160217905550600060018190555061129c806100666000396000f3006060604052600436106100e6576000357c0100000000000000000000000000000000000000000000000000000000900463ffffffff16806306fdde03146100eb578063095ea7b31461017957806318160ddd146101c857806323b872dd146101f15780632e1a7d4d1461025f578063313ce5671461028f578063517125fa146102b857806364edfbf0146102e157806370a08231146102ff5780637ff9b5961461034c5780638da5cb5b1461037557806395d89b41146103ca578063a9059cbb14610458578063dd62ed3e146104b2578063dfcc3a001461051e578063f2fde38b14610547575b600080fd5b34156100f657600080fd5b6100fe610580565b6040518080602001828103825283818151815260200191508051906020019080838360005b8381101561013e578082015181840152602081019050610123565b50505050905090810190601f16801561016b5780820380516001836020036101000a031916815260200191505b509250505060405180910390f35b6101ae600480803573ffffffffffffffffffffffffffffffffffffffff169060200190919080359060200190919050506105b9565b604051808215151515815260200191505060405180910390f35b34156101d357600080fd5b6101db6106ab565b6040518082815260200191505060405180910390f35b610245600480803573ffffffffffffffffffffffffffffffffffffffff1690602001909190803573ffffffffffffffffffffffffffffffffffffffff169060200190919080359060200190919050506106b6565b604051808215151515815260200191505060405180910390f35b6102756004808035906020019091905050610b1d565b604051808215151515815260200191505060405180910390f35b341561029a57600080fd5b6102a2610ce5565b6040518082815260200191505060405180910390f35b34156102c357600080fd5b6102cb610cea565b6040518082815260200191505060405180910390f35b6102e9610cf0565b6040518082815260200191505060405180910390f35b341561030a57600080fd5b610336600480803573ffffffffffffffffffffffffffffffffffffffff16906020019091905050610e4d565b6040518082815260200191505060405180910390f35b341561035757600080fd5b61035f610e96565b6040518082815260200191505060405180910390f35b341561038057600080fd5b610388610e9b565b604051808273ffffffffffffffffffffffffffffffffffffffff1673ffffffffffffffffffffffffffffffffffffffff16815260200191505060405180910390f35b34156103d557600080fd5b6103dd610ec0565b6040518080602001828103825283818151815260200191508051906020019080838360005b8381101561041d578082015181840152602081019050610402565b50505050905090810190601f16801561044a5780820380516001836020036101000a031916815260200191505b509250505060405180910390f35b341561046357600080fd5b610498600480803573ffffffffffffffffffffffffffffffffffffffff16906020019091908035906020019091905050610ef9565b604051808215151515815260200191505060405180910390f35b34156104bd57600080fd5b610508600480803573ffffffffffffffffffffffffffffffffffffffff1690602001909190803573ffffffffffffffffffffffffffffffffffffffff169060200190919050506110bb565b6040518082815260200191505060405180910390f35b341561052957600080fd5b610531611142565b6040518082815260200191505060405180910390f35b341561055257600080fd5b61057e600480803573ffffffffffffffffffffffffffffffffffffffff16906020019091905050611149565b005b6040805190810160405280601281526020017f53414d504c4520455243323020544f4b454e000000000000000000000000000081525081565b600081600360003373ffffffffffffffffffffffffffffffffffffffff1673ffffffffffffffffffffffffffffffffffffffff16815260200190815260200160002060008573ffffffffffffffffffffffffffffffffffffffff1673ffffffffffffffffffffffffffffffffffffffff168152602001908152602001600020819055508273ffffffffffffffffffffffffffffffffffffffff163373ffffffffffffffffffffffffffffffffffffffff167f8c5be1e5ebec7d5bd14f71427d1e84f3dd0314c0f7b2291e5b200ac8c7c3b925846040518082815260200191505060405180910390a36001905092915050565b600062989680905090565b60008373ffffffffffffffffffffffffffffffffffffffff163273ffffffffffffffffffffffffffffffffffffffff16141515156106f357600080fd5b81600260008673ffffffffffffffffffffffffffffffffffffffff1673ffffffffffffffffffffffffffffffffffffffff16815260200190815260200160002054101580156107be575081600360008673ffffffffffffffffffffffffffffffffffffffff1673ffffffffffffffffffffffffffffffffffffffff16815260200190815260200160002060008573ffffffffffffffffffffffffffffffffffffffff1673ffffffffffffffffffffffffffffffffffffffff1681526020019081526020016000205410155b80156107ca5750600082115b80156108655750600260008473ffffffffffffffffffffffffffffffffffffffff1673ffffffffffffffffffffffffffffffffffffffff1681526020019081526020016000205461086383600260008773ffffffffffffffffffffffffffffffffffffffff1673ffffffffffffffffffffffffffffffffffffffff1681526020019081526020016000205461121e90919063ffffffff16565b115b15610b11576108bc82600260008773ffffffffffffffffffffffffffffffffffffffff1673ffffffffffffffffffffffffffffffffffffffff1681526020019081526020016000205461123c90919063ffffffff16565b600260008673ffffffffffffffffffffffffffffffffffffffff1673ffffffffffffffffffffffffffffffffffffffff1681526020019081526020016000208190555061098e82600360008773ffffffffffffffffffffffffffffffffffffffff1673ffffffffffffffffffffffffffffffffffffffff16815260200190815260200160002060008673ffffffffffffffffffffffffffffffffffffffff1673ffffffffffffffffffffffffffffffffffffffff1681526020019081526020016000205461123c90919063ffffffff16565b600360008673ffffffffffffffffffffffffffffffffffffffff1673ffffffffffffffffffffffffffffffffffffffff16815260200190815260200160002060008573ffffffffffffffffffffffffffffffffffffffff1673ffffffffffffffffffffffffffffffffffffffff16815260200190815260200160002081905550610a6082600260008673ffffffffffffffffffffffffffffffffffffffff1673ffffffffffffffffffffffffffffffffffffffff1681526020019081526020016000205461121e90919063ffffffff16565b600260008573ffffffffffffffffffffffffffffffffffffffff1673ffffffffffffffffffffffffffffffffffffffff168152602001908152602001600020819055508273ffffffffffffffffffffffffffffffffffffffff168473ffffffffffffffffffffffffffffffffffffffff167fddf252ad1be2c89b69c2b068fc378daa952ba7f163c4a11628f55a4df523b3ef846040518082815260200191505060405180910390a360019050610b16565b600090505b9392505050565b600081600260003373ffffffffffffffffffffffffffffffffffffffff1673ffffffffffffffffffffffffffffffffffffffff1681526020019081526020016000205410158015610bfd5750600260003373ffffffffffffffffffffffffffffffffffffffff1673ffffffffffffffffffffffffffffffffffffffff16815260200190815260200160002054610bfb83600260003373ffffffffffffffffffffffffffffffffffffffff1673ffffffffffffffffffffffffffffffffffffffff1681526020019081526020016000205461121e90919063ffffffff16565b115b15610cdb573373ffffffffffffffffffffffffffffffffffffffff166108fc839081150290604051600060405180830381858888f1935050505015610cda57610c8e82600260003373ffffffffffffffffffffffffffffffffffffffff1673ffffffffffffffffffffffffffffffffffffffff1681526020019081526020016000205461123c90919063ffffffff16565b600260003373ffffffffffffffffffffffffffffffffffffffff1673ffffffffffffffffffffffffffffffffffffffff1681526020019081526020016000208190555060019050610ce0565b5b600090505b919050565b601281565b614e2081565b600080600034915062989680600154101515610d0b57600080fd5b60003414151515610d1b57600080fd5b610d2f60648361125590919063ffffffff16565b9050610d468160015461121e90919063ffffffff16565b6001819055506298968060015411151515610d6057600080fd5b610db281600260003373ffffffffffffffffffffffffffffffffffffffff1673ffffffffffffffffffffffffffffffffffffffff1681526020019081526020016000205461121e90919063ffffffff16565b600260003373ffffffffffffffffffffffffffffffffffffffff1673ffffffffffffffffffffffffffffffffffffffff168152602001908152602001600020819055503373ffffffffffffffffffffffffffffffffffffffff1660007fddf252ad1be2c89b69c2b068fc378daa952ba7f163c4a11628f55a4df523b3ef836040518082815260200191505060405180910390a3809250505090565b6000600260008373ffffffffffffffffffffffffffffffffffffffff1673ffffffffffffffffffffffffffffffffffffffff168152602001908152602001600020549050919050565b606481565b6000809054906101000a900473ffffffffffffffffffffffffffffffffffffffff1681565b6040805190810160405280600381526020017f534c4d000000000000000000000000000000000000000000000000000000000081525081565b600080600260003373ffffffffffffffffffffffffffffffffffffffff1673ffffffffffffffffffffffffffffffffffffffff168152602001908152602001600020549050828110158015610f4e5750600083115b156110af57610f66838261123c90919063ffffffff16565b905080600260003373ffffffffffffffffffffffffffffffffffffffff1673ffffffffffffffffffffffffffffffffffffffff16815260200190815260200160002081905550610ffe83600260008773ffffffffffffffffffffffffffffffffffffffff1673ffffffffffffffffffffffffffffffffffffffff1681526020019081526020016000205461121e90919063ffffffff16565b600260008673ffffffffffffffffffffffffffffffffffffffff1673ffffffffffffffffffffffffffffffffffffffff168152602001908152602001600020819055508373ffffffffffffffffffffffffffffffffffffffff163373ffffffffffffffffffffffffffffffffffffffff167fddf252ad1be2c89b69c2b068fc378daa952ba7f163c4a11628f55a4df523b3ef856040518082815260200191505060405180910390a3600191506110b4565b600091505b5092915050565b6000600360008473ffffffffffffffffffffffffffffffffffffffff1673ffffffffffffffffffffffffffffffffffffffff16815260200190815260200160002060008373ffffffffffffffffffffffffffffffffffffffff1673ffffffffffffffffffffffffffffffffffffffff16815260200190815260200160002054905092915050565b6298968081565b6000809054906101000a900473ffffffffffffffffffffffffffffffffffffffff1673ffffffffffffffffffffffffffffffffffffffff163373ffffffffffffffffffffffffffffffffffffffff161415156111a457600080fd5b600073ffffffffffffffffffffffffffffffffffffffff168173ffffffffffffffffffffffffffffffffffffffff1614151561121b57806000806101000a81548173ffffffffffffffffffffffffffffffffffffffff021916908373ffffffffffffffffffffffffffffffffffffffff1602179055505b50565b600080828401905083811015151561123257fe5b8091505092915050565b600082821115151561124a57fe5b818303905092915050565b600080828481151561126357fe5b04905080915050929150505600a165627a7a72305820ac82e5f6a1171723bc24154eac44874754c1ad5227ab9b3233148c5c935119280029",
  "source": "pragma solidity ^0.4.15;\n\nimport './Ownable.sol';\nimport './SafeMath.sol';\n\ncontract ERC20Contract is Ownable {\n  using SafeMath for uint;\n  string public constant name = \"SAMPLE ERC20 TOKEN\";\n  string public constant symbol = \"SLM\";\n  uint public constant decimals = 18;\n  uint  public constant totalNumberOfTokens = 10000000;\n\n  uint public constant tokenPrice  = 100;\n  uint public constant minTokensForSale = 20000;\n  uint totalUsedTokens;\n\n  mapping (address => uint256) balances;\n  //Owner of account approves the transfer of an amount to another account\n  mapping(address => mapping (address => uint256)) allowed;\n\n\n  function ERC20Contract() {\n    //initializing the contract with few dummy values\n    totalUsedTokens = 0;\n  }\n\n  function purchase() payable external returns (uint tokens) {\n    uint amount = msg.value;\n    require(totalUsedTokens < totalNumberOfTokens);\n\n    require (msg.value != 0) ;\n    //total tokens purchased is received gas/cost of 1 token\n    uint numTokens = amount.div(tokenPrice);\n    totalUsedTokens = totalUsedTokens.add(numTokens);\n    require (totalUsedTokens <= totalNumberOfTokens) ;\n    // Assign new tokens to sender\n    balances[msg.sender] = balances[msg.sender].add(numTokens);\n    // log token creation event\n    Transfer(0, msg.sender, numTokens);\n    tokens = numTokens;\n  }\n\n  function totalSupply() constant returns (uint _totalSupply) {\n    _totalSupply = totalNumberOfTokens;\n  }\n  function balanceOf(address _owner) constant returns (uint balance) {\n    balance = balances[_owner];\n  }\n  function transfer(address _to, uint _value) external returns (bool success) {\n    uint senderBalance = balances[msg.sender];\n    if (senderBalance >= _value && _value > 0) {\n        senderBalance = senderBalance.sub(_value);\n        balances[msg.sender] = senderBalance;\n        balances[_to] = balances[_to].add(_value);\n        Transfer(msg.sender, _to, _value);\n        return true;\n    }\n    return false;\n  }\n  function transferFrom(address _from, address _to, uint _amount) external payable returns (bool success) {\n    require(tx.origin != _from) ;\n\n    if(balances[_from] >= _amount\n      && allowed[_from][_to] >= _amount\n      && _amount > 0\n      && balances[_to].add(_amount) > balances[_to]) {\n        balances[_from] = balances[_from].sub(_amount);\n        allowed[_from][_to] = allowed[_from][_to].sub(_amount);\n        balances[_to] = balances[_to].add(_amount);\n        Transfer(_from, _to, _amount);\n        return true;\n      } else {\n        return false;\n      }\n  }\n  function approve(address _spender, uint _amount) payable returns (bool success) {\n    allowed[msg.sender][_spender] = _amount;\n    Approval(msg.sender, _spender, _amount);\n    return true;\n  }\n  function allowance(address _owner, address _spender) constant returns (uint remaining) {\n    return allowed[_owner][_spender];\n  }\n\n  //function will allow a user to withdraw his share of tokens.\n  // not sure how this is useful though\n  function withdraw(uint value) external payable returns (bool) {\n    if(balances[msg.sender] >= value &&\n       balances[msg.sender].add(value) > balances[msg.sender]) {\n      if(msg.sender.send(value)) {\n        balances[msg.sender] = balances[msg.sender].sub(value);\n        return true;\n      }\n    }\n    return false;\n  }\n\n  event Transfer(address indexed _from, address indexed _to, uint _value);\n  event Approval(address indexed _owner, address indexed _spender, uint _value);\n}\n",
  "sourcePath": "/root/repos/Contracts/contracts/ERC20Contract.sol",
  "compiler": {
    "name": "solc",
    "version": "0.4.18+commit.9cf6e910.Emscripten.clang"
  },
  "schemaVersion": "1.0.1",
  "updatedAt": "2018-02-08T05:16:51.587Z"
}