{
  "contractName": "MembranaDeals",
  "abi": [
    {
      "constant": true,
      "inputs": [
        {
          "name": "",
          "type": "uint256"
        }
      ],
      "name": "deals",
      "outputs": [
        {
          "name": "currentState",
          "type": "uint8"
        },
        {
          "name": "start",
          "type": "uint256"
        },
        {
          "name": "deadline",
          "type": "uint256"
        },
        {
          "name": "maxLoss",
          "type": "uint256"
        },
        {
          "name": "startBalance",
          "type": "uint256"
        },
        {
          "name": "targetBalance",
          "type": "uint256"
        },
        {
          "name": "amount",
          "type": "uint256"
        },
        {
          "name": "currency",
          "type": "uint8"
        },
        {
          "name": "investor",
          "type": "string"
        },
        {
          "name": "investorAddress",
          "type": "address"
        },
        {
          "name": "trader",
          "type": "string"
        },
        {
          "name": "traderAddress",
          "type": "address"
        }
      ],
      "payable": false,
      "stateMutability": "view",
      "type": "function"
    },
    {
      "constant": false,
      "inputs": [
        {
          "name": "dealId",
          "type": "uint256"
        }
      ],
      "name": "setHalted",
      "outputs": [],
      "payable": false,
      "stateMutability": "nonpayable",
      "type": "function"
    },
    {
      "constant": false,
      "inputs": [],
      "name": "MercatusDeals",
      "outputs": [],
      "payable": true,
      "stateMutability": "payable",
      "type": "function"
    },
    {
      "constant": false,
      "inputs": [
        {
          "name": "dealId",
          "type": "uint256"
        }
      ],
      "name": "setVerified",
      "outputs": [],
      "payable": false,
      "stateMutability": "nonpayable",
      "type": "function"
    },
    {
      "constant": true,
      "inputs": [
        {
          "name": "dealId",
          "type": "uint256"
        }
      ],
      "name": "getState",
      "outputs": [
        {
          "name": "",
          "type": "uint256"
        }
      ],
      "payable": false,
      "stateMutability": "view",
      "type": "function"
    },
    {
      "constant": false,
      "inputs": [
        {
          "name": "dealId",
          "type": "uint256"
        },
        {
          "name": "finishAmount",
          "type": "uint256"
        }
      ],
      "name": "setFinished",
      "outputs": [],
      "payable": false,
      "stateMutability": "nonpayable",
      "type": "function"
    },
    {
      "constant": true,
      "inputs": [],
      "name": "be",
      "outputs": [
        {
          "name": "",
          "type": "address"
        }
      ],
      "payable": false,
      "stateMutability": "view",
      "type": "function"
    },
    {
      "constant": true,
      "inputs": [],
      "name": "getDealsCount",
      "outputs": [
        {
          "name": "",
          "type": "uint256"
        }
      ],
      "payable": false,
      "stateMutability": "view",
      "type": "function"
    },
    {
      "constant": true,
      "inputs": [
        {
          "name": "dealId",
          "type": "uint256"
        }
      ],
      "name": "getStart",
      "outputs": [
        {
          "name": "",
          "type": "uint256"
        }
      ],
      "payable": false,
      "stateMutability": "view",
      "type": "function"
    },
    {
      "constant": false,
      "inputs": [
        {
          "name": "_duration",
          "type": "uint256"
        },
        {
          "name": "_maxLoss",
          "type": "uint256"
        },
        {
          "name": "_startBalance",
          "type": "uint256"
        },
        {
          "name": "_targetBalance",
          "type": "uint256"
        },
        {
          "name": "_amount",
          "type": "uint256"
        },
        {
          "name": "_investor",
          "type": "string"
        },
        {
          "name": "_investorAddress",
          "type": "address"
        },
        {
          "name": "_trader",
          "type": "string"
        },
        {
          "name": "_traderAddress",
          "type": "address"
        },
        {
          "name": "offer",
          "type": "uint256"
        },
        {
          "name": "_currency",
          "type": "uint256"
        }
      ],
      "name": "makeDeal",
      "outputs": [],
      "payable": true,
      "stateMutability": "payable",
      "type": "function"
    },
    {
      "constant": true,
      "inputs": [
        {
          "name": "finishAmount",
          "type": "uint256"
        },
        {
          "name": "startBalance",
          "type": "uint256"
        },
        {
          "name": "targetBalance",
          "type": "uint256"
        },
        {
          "name": "amount",
          "type": "uint256"
        }
      ],
      "name": "getSplit",
      "outputs": [
        {
          "name": "",
          "type": "uint256"
        }
      ],
      "payable": false,
      "stateMutability": "pure",
      "type": "function"
    },
    {
      "payable": true,
      "stateMutability": "payable",
      "type": "fallback"
    },
    {
      "anonymous": false,
      "inputs": [
        {
          "indexed": true,
          "name": "from",
          "type": "address"
        },
        {
          "indexed": true,
          "name": "dealId",
          "type": "uint256"
        },
        {
          "indexed": false,
          "name": "start",
          "type": "uint256"
        },
        {
          "indexed": false,
          "name": "offer",
          "type": "uint256"
        }
      ],
      "name": "spawnInstance",
      "type": "event"
    }
  ],
  "bytecode": "0x606060405273873a2832898b17b5c12355769a7e2dae6c2f92f76000806101000a81548173ffffffffffffffffffffffffffffffffffffffff021916908373ffffffffffffffffffffffffffffffffffffffff160217905550341561006357600080fd5b6113cb806100726000396000f3006060604052600436106100af576000357c0100000000000000000000000000000000000000000000000000000000900463ffffffff16806303988f84146100b45780630af4cd61146102b05780631147b142146102d35780632d9de472146102dd57806344c9af28146103005780634580cc5e1461033757806347ec8e2114610363578063594de857146103b85780635bc22d1b146103e1578063c0eaded214610418578063f4bd0eb21461052a575b600080fd5b34156100bf57600080fd5b6100d5600480803590602001909190505061057c565b604051808d60038111156100e557fe5b60ff1681526020018c81526020018b81526020018a815260200189815260200188815260200187815260200186600281111561011d57fe5b60ff168152602001806020018573ffffffffffffffffffffffffffffffffffffffff1673ffffffffffffffffffffffffffffffffffffffff168152602001806020018473ffffffffffffffffffffffffffffffffffffffff1673ffffffffffffffffffffffffffffffffffffffff1681526020018381038352878181546001816001161561010002031660029004815260200191508054600181600116156101000203166002900480156102125780601f106101e757610100808354040283529160200191610212565b820191906000526020600020905b8154815290600101906020018083116101f557829003601f168201915b50508381038252858181546001816001161561010002031660029004815260200191508054600181600116156101000203166002900480156102955780601f1061026a57610100808354040283529160200191610295565b820191906000526020600020905b81548152906001019060200180831161027857829003601f168201915b50509e50505050505050505050505050505060405180910390f35b34156102bb57600080fd5b6102d16004808035906020019091905050610643565b005b6102db610879565b005b34156102e857600080fd5b6102fe600480803590602001909190505061087e565b005b341561030b57600080fd5b6103216004808035906020019091905050610973565b6040518082815260200191505060405180910390f35b341561034257600080fd5b61036160048080359060200190919080359060200190919050506109b5565b005b341561036e57600080fd5b610376610e32565b604051808273ffffffffffffffffffffffffffffffffffffffff1673ffffffffffffffffffffffffffffffffffffffff16815260200191505060405180910390f35b34156103c357600080fd5b6103cb610e57565b6040518082815260200191505060405180910390f35b34156103ec57600080fd5b6104026004808035906020019091905050610e64565b6040518082815260200191505060405180910390f35b610528600480803590602001909190803590602001909190803590602001909190803590602001909190803590602001909190803590602001908201803590602001908080601f0160208091040260200160405190810160405280939291908181526020018383808284378201915050505050509190803573ffffffffffffffffffffffffffffffffffffffff1690602001909190803590602001908201803590602001908080601f0160208091040260200160405190810160405280939291908181526020018383808284378201915050505050509190803573ffffffffffffffffffffffffffffffffffffffff16906020019091908035906020019091908035906020019091905050610e8e565b005b341561053557600080fd5b610566600480803590602001909190803590602001909190803590602001909190803590602001909190505061117d565b6040518082815260200191505060405180910390f35b60018181548110151561058b57fe5b90600052602060002090600c02016000915090508060000160009054906101000a900460ff16908060010154908060020154908060030154908060040154908060050154908060060154908060070160009054906101000a900460ff169080600801908060090160009054906101000a900473ffffffffffffffffffffffffffffffffffffffff169080600a019080600b0160009054906101000a900473ffffffffffffffffffffffffffffffffffffffff1690508c565b6000809054906101000a900473ffffffffffffffffffffffffffffffffffffffff1673ffffffffffffffffffffffffffffffffffffffff163373ffffffffffffffffffffffffffffffffffffffff1614151561069e57600080fd5b600060038111156106ab57fe5b6001828154811015156106ba57fe5b90600052602060002090600c020160000160009054906101000a900460ff1660038111156106e457fe5b14806107335750600160038111156106f857fe5b60018281548110151561070757fe5b90600052602060002090600c020160000160009054906101000a900460ff16600381111561073157fe5b145b151561073e57600080fd5b600060018281548110151561074f57fe5b90600052602060002090600c0201600601541415151561076e57600080fd5b600060018281548110151561077f57fe5b90600052602060002090600c0201600601819055506001818154811015156107a357fe5b90600052602060002090600c0201600b0160009054906101000a900473ffffffffffffffffffffffffffffffffffffffff1673ffffffffffffffffffffffffffffffffffffffff166108fc6001838154811015156107fd57fe5b90600052602060002090600c0201600601549081150290604051600060405180830381858888f19350505050151561083457600080fd5b600260018281548110151561084557fe5b90600052602060002090600c020160000160006101000a81548160ff0219169083600381111561087157fe5b021790555050565b600080fd5b6000809054906101000a900473ffffffffffffffffffffffffffffffffffffffff1673ffffffffffffffffffffffffffffffffffffffff163373ffffffffffffffffffffffffffffffffffffffff161415156108d957600080fd5b8060008060038111156108e857fe5b6001838154811015156108f757fe5b90600052602060002090600c020160000160009054906101000a900460ff16600381111561092157fe5b14151561092d57600080fd5b6001808481548110151561093d57fe5b90600052602060002090600c020160000160006101000a81548160ff0219169083600381111561096957fe5b0217905550505050565b600060018281548110151561098457fe5b90600052602060002090600c020160000160009054906101000a900460ff1660038111156109ae57fe5b9050919050565b60008060009054906101000a900473ffffffffffffffffffffffffffffffffffffffff1673ffffffffffffffffffffffffffffffffffffffff163373ffffffffffffffffffffffffffffffffffffffff16141515610a1257600080fd5b826001806003811115610a2157fe5b600183815481101515610a3057fe5b90600052602060002090600c020160000160009054906101000a900460ff166003811115610a5a57fe5b141515610a6657600080fd5b6000600186815481101515610a7757fe5b90600052602060002090600c02016006015414151515610a9657600080fd5b6000600186815481101515610aa757fe5b90600052602060002090600c020160060181905550600185815481101515610acb57fe5b90600052602060002090600c02016004015484111515610b8a57600185815481101515610af457fe5b90600052602060002090600c020160090160009054906101000a900473ffffffffffffffffffffffffffffffffffffffff1673ffffffffffffffffffffffffffffffffffffffff166108fc600187815481101515610b4e57fe5b90600052602060002090600c0201600601549081150290604051600060405180830381858888f193505050501515610b8557600080fd5b610de9565b600185815481101515610b9957fe5b90600052602060002090600c020160050154841115610c5757600185815481101515610bc157fe5b90600052602060002090600c0201600b0160009054906101000a900473ffffffffffffffffffffffffffffffffffffffff1673ffffffffffffffffffffffffffffffffffffffff166108fc600187815481101515610c1b57fe5b90600052602060002090600c0201600601549081150290604051600060405180830381858888f193505050501515610c5257600080fd5b610de8565b610cc384600187815481101515610c6a57fe5b90600052602060002090600c020160040154600188815481101515610c8b57fe5b90600052602060002090600c020160050154600189815481101515610cac57fe5b90600052602060002090600c02016006015461117d565b9250600185815481101515610cd457fe5b90600052602060002090600c0201600b0160009054906101000a900473ffffffffffffffffffffffffffffffffffffffff1673ffffffffffffffffffffffffffffffffffffffff166108fc849081150290604051600060405180830381858888f193505050501515610d4557600080fd5b600185815481101515610d5457fe5b90600052602060002090600c020160090160009054906101000a900473ffffffffffffffffffffffffffffffffffffffff1673ffffffffffffffffffffffffffffffffffffffff166108fc84600188815481101515610daf57fe5b90600052602060002090600c020160060154039081150290604051600060405180830381858888f193505050501515610de757600080fd5b5b5b6003600186815481101515610dfa57fe5b90600052602060002090600c020160000160006101000a81548160ff02191690836003811115610e2657fe5b02179055505050505050565b6000809054906101000a900473ffffffffffffffffffffffffffffffffffffffff1681565b6000600180549050905090565b6000600182815481101515610e7557fe5b90600052602060002090600c0201600101549050919050565b60008110158015610e9f5750600381105b1515610eaa57600080fd5b8634141515610eb857600080fd5b60018054806001018281610ecc919061119b565b91600052602060002090600c020160006101806040519081016040528060006003811115610ef657fe5b8152602001428152602001600081526020018e81526020018d81526020018c81526020018b8152602001856002811115610f2c57fe5b6002811115610f3757fe5b81526020018a81526020018973ffffffffffffffffffffffffffffffffffffffff1681526020018881526020018773ffffffffffffffffffffffffffffffffffffffff16815250909190915060008201518160000160006101000a81548160ff02191690836003811115610fa757fe5b02179055506020820151816001015560408201518160020155606082015181600301556080820151816004015560a0820151816005015560c0820151816006015560e08201518160070160006101000a81548160ff0219169083600281111561100c57fe5b021790555061010082015181600801908051906020019061102e9291906111cd565b506101208201518160090160006101000a81548173ffffffffffffffffffffffffffffffffffffffff021916908373ffffffffffffffffffffffffffffffffffffffff16021790555061014082015181600a0190805190602001906110949291906111cd565b5061016082015181600b0160006101000a81548173ffffffffffffffffffffffffffffffffffffffff021916908373ffffffffffffffffffffffffffffffffffffffff160217905550505050620151808b0242016001808080549050038154811015156110fd57fe5b90600052602060002090600c02016002018190555060018080549050033373ffffffffffffffffffffffffffffffffffffffff167fcd90b99d62d1fe04456025e59bf0dcdbd54ea65652aef42d7ed0425a932ff2d94285604051808381526020018281526020019250505060405180910390a35050505050505050505050565b6000838303828587030281151561119057fe5b049050949350505050565b8154818355818115116111c857600c0281600c0283600052602060002091820191016111c7919061124d565b5b505050565b828054600181600116156101000203166002900490600052602060002090601f016020900481019282601f1061120e57805160ff191683800117855561123c565b8280016001018555821561123c579182015b8281111561123b578251825591602001919060010190611220565b5b5090506112499190611332565b5090565b61132f91905b8082111561132b57600080820160006101000a81549060ff02191690556001820160009055600282016000905560038201600090556004820160009055600582016000905560068201600090556007820160006101000a81549060ff02191690556008820160006112c49190611357565b6009820160006101000a81549073ffffffffffffffffffffffffffffffffffffffff0219169055600a820160006112fb9190611357565b600b820160006101000a81549073ffffffffffffffffffffffffffffffffffffffff021916905550600c01611253565b5090565b90565b61135491905b80821115611350576000816000905550600101611338565b5090565b90565b50805460018160011615610100020316600290046000825580601f1061137d575061139c565b601f01602090049060005260206000209081019061139b9190611332565b5b505600a165627a7a72305820e6fe88b17ec9ec941df271c4cf41f6b1951154f44eabc605777fe211950506ef0029",
  "source": "pragma solidity ^0.4.15;\n\ncontract MembranaDeals {\n  address public be = 0x873A2832898b17b5C12355769A7E2DAe6c2f92f7;\n  enum state { paid, verified, halted, finished}\n  enum currencyType { USDT, BTC, ETH}\n  struct Deal {\n    state  currentState;\n    uint  start;\n    uint  deadline;\n    uint  maxLoss;\n    uint  startBalance;\n    uint  targetBalance;\n    uint  amount;\n    currencyType  currency;\n    string  investor;\n    address  investorAddress;\n    string  trader;\n    address  traderAddress;\n  }\n  Deal[] public deals;\n  function MercatusDeals() public payable{\n    revert();\n  }\n  modifier onlyBe() {\n   require(msg.sender == be);\n   _;\n }\n  modifier inState(uint dealId, state s) {\n   require(deals[dealId].currentState == s);\n   _;\n }\n function getState(uint dealId) public constant returns (uint)  {\n   return uint(deals[dealId].currentState);\n }\n function getStart(uint dealId) public constant returns (uint)  {\n   return deals[dealId].start;\n }\n function setVerified(uint dealId) public  onlyBe inState(dealId, state.paid) {\n     deals[dealId].currentState = state.verified;\n}\n\n function setHalted(uint dealId) public  onlyBe {\n     require(deals[dealId].currentState == state.paid || deals[dealId].currentState == state.verified);\n     require(deals[dealId].amount != 0);\n     deals[dealId].amount = 0;\n     deals[dealId].traderAddress.transfer(deals[dealId].amount);\n     deals[dealId].currentState = state.halted;\n}\nfunction getSplit(uint finishAmount, uint startBalance, uint targetBalance, uint amount) public pure returns (uint) {\n    return ((finishAmount - startBalance) * amount) / ((targetBalance - startBalance) );\n}\n function setFinished(uint dealId, uint finishAmount) public  onlyBe inState(dealId, state.verified) {\n     require(deals[dealId].amount != 0);\n     deals[dealId].amount = 0;\n     if(finishAmount <= deals[dealId].startBalance){\n       deals[dealId].investorAddress.transfer(deals[dealId].amount);\n     }else if(finishAmount>deals[dealId].targetBalance){\n       deals[dealId].traderAddress.transfer(deals[dealId].amount);\n     }\n     else{\n        uint split = getSplit(finishAmount, deals[dealId].startBalance, deals[dealId].targetBalance, deals[dealId].amount);\n        deals[dealId].traderAddress.transfer(split);\n        deals[dealId].investorAddress.transfer(deals[dealId].amount - split);\n     }\n     deals[dealId].currentState = state.finished;\n}\n    function getDealsCount() public constant returns (uint){\n        return deals.length;\n    }\nfunction () external payable  {\n  revert();\n}\n    function makeDeal(uint _duration, uint _maxLoss, uint _startBalance, uint _targetBalance, uint _amount,  string _investor, address _investorAddress, string _trader, address _traderAddress, uint offer, uint _currency)\n    payable public {\n      require( _currency >= 0 &&  _currency < 3  );\n      require(msg.value == _amount);\n        deals.push(Deal({\n            currentState: state.paid,\n            start: now,\n            deadline: 0,\n            maxLoss: _maxLoss,\n            startBalance: _startBalance,\n            targetBalance: _targetBalance,\n            amount: _amount,\n            currency: currencyType(_currency),\n            investor: _investor,\n            investorAddress: _investorAddress,\n            trader: _trader,\n            traderAddress: _traderAddress\n          }));\n          deals[deals.length-1].deadline = now +  _duration * 86400;\n        spawnInstance(msg.sender,deals.length-1, now, offer);\n    }\n    event spawnInstance(address indexed from, uint indexed dealId, uint start, uint offer);\n}\n",
  "sourcePath": "/root/repos/Contracts/contracts/MembranaDeals.sol",
  "compiler": {
    "name": "solc",
    "version": "0.4.18+commit.9cf6e910.Emscripten.clang"
  },
  "schemaVersion": "1.0.1",
  "updatedAt": "2018-03-05T16:04:13.629Z"
}