{
  "contractName": "MercatusDeals",
  "abi": [
    {
      "constant": true,
      "inputs": [
        {
          "name": "",
          "type": "uint256"
        }
      ],
      "name": "deals",
      "outputs": [
        {
          "name": "currentState",
          "type": "uint8"
        },
        {
          "name": "start",
          "type": "uint256"
        },
        {
          "name": "deadline",
          "type": "uint256"
        },
        {
          "name": "maxLoss",
          "type": "uint256"
        },
        {
          "name": "startBalance",
          "type": "uint256"
        },
        {
          "name": "targetBalance",
          "type": "uint256"
        },
        {
          "name": "amount",
          "type": "uint256"
        },
        {
          "name": "currency",
          "type": "uint8"
        },
        {
          "name": "investor",
          "type": "string"
        },
        {
          "name": "investorAddress",
          "type": "address"
        },
        {
          "name": "trader",
          "type": "string"
        },
        {
          "name": "traderAddress",
          "type": "address"
        }
      ],
      "payable": false,
      "stateMutability": "view",
      "type": "function"
    },
    {
      "constant": false,
      "inputs": [
        {
          "name": "dealId",
          "type": "uint256"
        }
      ],
      "name": "setHalted",
      "outputs": [],
      "payable": false,
      "stateMutability": "nonpayable",
      "type": "function"
    },
    {
      "constant": false,
      "inputs": [
        {
          "name": "dealId",
          "type": "uint256"
        }
      ],
      "name": "setVerified",
      "outputs": [],
      "payable": false,
      "stateMutability": "nonpayable",
      "type": "function"
    },
    {
      "constant": true,
      "inputs": [
        {
          "name": "dealId",
          "type": "uint256"
        }
      ],
      "name": "getState",
      "outputs": [
        {
          "name": "",
          "type": "uint256"
        }
      ],
      "payable": false,
      "stateMutability": "view",
      "type": "function"
    },
    {
      "constant": false,
      "inputs": [
        {
          "name": "dealId",
          "type": "uint256"
        },
        {
          "name": "finishAmount",
          "type": "uint256"
        }
      ],
      "name": "setFinished",
      "outputs": [],
      "payable": false,
      "stateMutability": "nonpayable",
      "type": "function"
    },
    {
      "constant": true,
      "inputs": [],
      "name": "be",
      "outputs": [
        {
          "name": "",
          "type": "address"
        }
      ],
      "payable": false,
      "stateMutability": "view",
      "type": "function"
    },
    {
      "constant": true,
      "inputs": [],
      "name": "getDealsCount",
      "outputs": [
        {
          "name": "",
          "type": "uint256"
        }
      ],
      "payable": false,
      "stateMutability": "view",
      "type": "function"
    },
    {
      "constant": true,
      "inputs": [
        {
          "name": "dealId",
          "type": "uint256"
        }
      ],
      "name": "getStart",
      "outputs": [
        {
          "name": "",
          "type": "uint256"
        }
      ],
      "payable": false,
      "stateMutability": "view",
      "type": "function"
    },
    {
      "constant": false,
      "inputs": [
        {
          "name": "_duration",
          "type": "uint256"
        },
        {
          "name": "_maxLoss",
          "type": "uint256"
        },
        {
          "name": "_startBalance",
          "type": "uint256"
        },
        {
          "name": "_targetBalance",
          "type": "uint256"
        },
        {
          "name": "_amount",
          "type": "uint256"
        },
        {
          "name": "_investor",
          "type": "string"
        },
        {
          "name": "_investorAddress",
          "type": "address"
        },
        {
          "name": "_trader",
          "type": "string"
        },
        {
          "name": "_traderAddress",
          "type": "address"
        },
        {
          "name": "offer",
          "type": "uint256"
        },
        {
          "name": "_currency",
          "type": "uint256"
        }
      ],
      "name": "makeDeal",
      "outputs": [],
      "payable": true,
      "stateMutability": "payable",
      "type": "function"
    },
    {
      "constant": true,
      "inputs": [
        {
          "name": "finishAmount",
          "type": "uint256"
        },
        {
          "name": "startBalance",
          "type": "uint256"
        },
        {
          "name": "targetBalance",
          "type": "uint256"
        },
        {
          "name": "amount",
          "type": "uint256"
        }
      ],
      "name": "getSplit",
      "outputs": [
        {
          "name": "",
          "type": "uint256"
        }
      ],
      "payable": false,
      "stateMutability": "pure",
      "type": "function"
    },
    {
      "inputs": [],
      "payable": true,
      "stateMutability": "payable",
      "type": "constructor"
    },
    {
      "payable": true,
      "stateMutability": "payable",
      "type": "fallback"
    },
    {
      "anonymous": false,
      "inputs": [
        {
          "indexed": true,
          "name": "from",
          "type": "address"
        },
        {
          "indexed": true,
          "name": "dealId",
          "type": "uint256"
        },
        {
          "indexed": false,
          "name": "start",
          "type": "uint256"
        },
        {
          "indexed": false,
          "name": "offer",
          "type": "uint256"
        }
      ],
      "name": "spawnInstance",
      "type": "event"
    }
  ],
  "bytecode": "0x606060405273873a2832898b17b5c12355769a7e2dae6c2f92f7600160006101000a81548173ffffffffffffffffffffffffffffffffffffffff021916908373ffffffffffffffffffffffffffffffffffffffff160217905550611309806100686000396000f3006060604052600436106100a4576000357c0100000000000000000000000000000000000000000000000000000000900463ffffffff16806303988f84146100a65780630af4cd61146102a25780632d9de472146102c557806344c9af28146102e85780634580cc5e1461031f57806347ec8e211461034b578063594de857146103a05780635bc22d1b146103c9578063c0eaded214610400578063f4bd0eb214610512575b005b34156100b157600080fd5b6100c76004808035906020019091905050610564565b604051808d60038111156100d757fe5b60ff1681526020018c81526020018b81526020018a815260200189815260200188815260200187815260200186600281111561010f57fe5b60ff168152602001806020018573ffffffffffffffffffffffffffffffffffffffff1673ffffffffffffffffffffffffffffffffffffffff168152602001806020018473ffffffffffffffffffffffffffffffffffffffff1673ffffffffffffffffffffffffffffffffffffffff1681526020018381038352878181546001816001161561010002031660029004815260200191508054600181600116156101000203166002900480156102045780601f106101d957610100808354040283529160200191610204565b820191906000526020600020905b8154815290600101906020018083116101e757829003601f168201915b50508381038252858181546001816001161561010002031660029004815260200191508054600181600116156101000203166002900480156102875780601f1061025c57610100808354040283529160200191610287565b820191906000526020600020905b81548152906001019060200180831161026a57829003601f168201915b50509e50505050505050505050505050505060405180910390f35b34156102ad57600080fd5b6102c3600480803590602001909190505061062b565b005b34156102d057600080fd5b6102e6600480803590602001909190505061080b565b005b34156102f357600080fd5b6103096004808035906020019091905050610902565b6040518082815260200191505060405180910390f35b341561032a57600080fd5b6103496004808035906020019091908035906020019091905050610944565b005b341561035657600080fd5b61035e610d6c565b604051808273ffffffffffffffffffffffffffffffffffffffff1673ffffffffffffffffffffffffffffffffffffffff16815260200191505060405180910390f35b34156103ab57600080fd5b6103b3610d92565b6040518082815260200191505060405180910390f35b34156103d457600080fd5b6103ea6004808035906020019091905050610d9f565b6040518082815260200191505060405180910390f35b610510600480803590602001909190803590602001909190803590602001909190803590602001909190803590602001909190803590602001908201803590602001908080601f0160208091040260200160405190810160405280939291908181526020018383808284378201915050505050509190803573ffffffffffffffffffffffffffffffffffffffff1690602001909190803590602001908201803590602001908080601f0160208091040260200160405190810160405280939291908181526020018383808284378201915050505050509190803573ffffffffffffffffffffffffffffffffffffffff16906020019091908035906020019091908035906020019091905050610dc9565b005b341561051d57600080fd5b61054e60048080359060200190919080359060200190919080359060200190919080359060200190919050506110bb565b6040518082815260200191505060405180910390f35b60028181548110151561057357fe5b90600052602060002090600c02016000915090508060000160009054906101000a900460ff16908060010154908060020154908060030154908060040154908060050154908060060154908060070160009054906101000a900460ff169080600801908060090160009054906101000a900473ffffffffffffffffffffffffffffffffffffffff169080600a019080600b0160009054906101000a900473ffffffffffffffffffffffffffffffffffffffff1690508c565b600160009054906101000a900473ffffffffffffffffffffffffffffffffffffffff1673ffffffffffffffffffffffffffffffffffffffff163373ffffffffffffffffffffffffffffffffffffffff1614151561068757600080fd5b6000600381111561069457fe5b6002828154811015156106a357fe5b90600052602060002090600c020160000160009054906101000a900460ff1660038111156106cd57fe5b148061071c5750600160038111156106e157fe5b6002828154811015156106f057fe5b90600052602060002090600c020160000160009054906101000a900460ff16600381111561071a57fe5b145b151561072757600080fd5b60028181548110151561073657fe5b90600052602060002090600c0201600b0160009054906101000a900473ffffffffffffffffffffffffffffffffffffffff1673ffffffffffffffffffffffffffffffffffffffff166108fc60028381548110151561079057fe5b90600052602060002090600c0201600601549081150290604051600060405180830381858888f1935050505015156107c757600080fd5b600280828154811015156107d757fe5b90600052602060002090600c020160000160006101000a81548160ff0219169083600381111561080357fe5b021790555050565b600160009054906101000a900473ffffffffffffffffffffffffffffffffffffffff1673ffffffffffffffffffffffffffffffffffffffff163373ffffffffffffffffffffffffffffffffffffffff1614151561086757600080fd5b80600080600381111561087657fe5b60028381548110151561088557fe5b90600052602060002090600c020160000160009054906101000a900460ff1660038111156108af57fe5b1415156108bb57600080fd5b60016002848154811015156108cc57fe5b90600052602060002090600c020160000160006101000a81548160ff021916908360038111156108f857fe5b0217905550505050565b600060028281548110151561091357fe5b90600052602060002090600c020160000160009054906101000a900460ff16600381111561093d57fe5b9050919050565b6000600160009054906101000a900473ffffffffffffffffffffffffffffffffffffffff1673ffffffffffffffffffffffffffffffffffffffff163373ffffffffffffffffffffffffffffffffffffffff161415156109a257600080fd5b8260018060038111156109b157fe5b6002838154811015156109c057fe5b90600052602060002090600c020160000160009054906101000a900460ff1660038111156109ea57fe5b1415156109f657600080fd5b600285815481101515610a0557fe5b90600052602060002090600c02016004015484111515610ac457600285815481101515610a2e57fe5b90600052602060002090600c020160090160009054906101000a900473ffffffffffffffffffffffffffffffffffffffff1673ffffffffffffffffffffffffffffffffffffffff166108fc600287815481101515610a8857fe5b90600052602060002090600c0201600601549081150290604051600060405180830381858888f193505050501515610abf57600080fd5b610d23565b600285815481101515610ad357fe5b90600052602060002090600c020160050154841115610b9157600285815481101515610afb57fe5b90600052602060002090600c0201600b0160009054906101000a900473ffffffffffffffffffffffffffffffffffffffff1673ffffffffffffffffffffffffffffffffffffffff166108fc600287815481101515610b5557fe5b90600052602060002090600c0201600601549081150290604051600060405180830381858888f193505050501515610b8c57600080fd5b610d22565b610bfd84600287815481101515610ba457fe5b90600052602060002090600c020160040154600288815481101515610bc557fe5b90600052602060002090600c020160050154600289815481101515610be657fe5b90600052602060002090600c0201600601546110bb565b9250600285815481101515610c0e57fe5b90600052602060002090600c0201600b0160009054906101000a900473ffffffffffffffffffffffffffffffffffffffff1673ffffffffffffffffffffffffffffffffffffffff166108fc849081150290604051600060405180830381858888f193505050501515610c7f57600080fd5b600285815481101515610c8e57fe5b90600052602060002090600c020160090160009054906101000a900473ffffffffffffffffffffffffffffffffffffffff1673ffffffffffffffffffffffffffffffffffffffff166108fc84600288815481101515610ce957fe5b90600052602060002090600c020160060154039081150290604051600060405180830381858888f193505050501515610d2157600080fd5b5b5b6003600286815481101515610d3457fe5b90600052602060002090600c020160000160006101000a81548160ff02191690836003811115610d6057fe5b02179055505050505050565b600160009054906101000a900473ffffffffffffffffffffffffffffffffffffffff1681565b6000600280549050905090565b6000600282815481101515610db057fe5b90600052602060002090600c0201600101549050919050565b60008110158015610dda5750600281105b1515610de557600080fd5b8634141515610df357600080fd5b60028054806001018281610e0791906110d9565b91600052602060002090600c020160006101806040519081016040528060006003811115610e3157fe5b8152602001428152602001600081526020018e81526020018d81526020018c81526020018b8152602001856002811115610e6757fe5b6002811115610e7257fe5b81526020018a81526020018973ffffffffffffffffffffffffffffffffffffffff1681526020018881526020018773ffffffffffffffffffffffffffffffffffffffff16815250909190915060008201518160000160006101000a81548160ff02191690836003811115610ee257fe5b02179055506020820151816001015560408201518160020155606082015181600301556080820151816004015560a0820151816005015560c0820151816006015560e08201518160070160006101000a81548160ff02191690836002811115610f4757fe5b0217905550610100820151816008019080519060200190610f6992919061110b565b506101208201518160090160006101000a81548173ffffffffffffffffffffffffffffffffffffffff021916908373ffffffffffffffffffffffffffffffffffffffff16021790555061014082015181600a019080519060200190610fcf92919061110b565b5061016082015181600b0160006101000a81548173ffffffffffffffffffffffffffffffffffffffff021916908373ffffffffffffffffffffffffffffffffffffffff160217905550505050620151808b024201600260016002805490500381548110151561103a57fe5b90600052602060002090600c0201600201819055506001600280549050033373ffffffffffffffffffffffffffffffffffffffff167fcd90b99d62d1fe04456025e59bf0dcdbd54ea65652aef42d7ed0425a932ff2d94285604051808381526020018281526020019250505060405180910390a35050505050505050505050565b600083830382858703028115156110ce57fe5b049050949350505050565b81548183558181151161110657600c0281600c028360005260206000209182019101611105919061118b565b5b505050565b828054600181600116156101000203166002900490600052602060002090601f016020900481019282601f1061114c57805160ff191683800117855561117a565b8280016001018555821561117a579182015b8281111561117957825182559160200191906001019061115e565b5b5090506111879190611270565b5090565b61126d91905b8082111561126957600080820160006101000a81549060ff02191690556001820160009055600282016000905560038201600090556004820160009055600582016000905560068201600090556007820160006101000a81549060ff02191690556008820160006112029190611295565b6009820160006101000a81549073ffffffffffffffffffffffffffffffffffffffff0219169055600a820160006112399190611295565b600b820160006101000a81549073ffffffffffffffffffffffffffffffffffffffff021916905550600c01611191565b5090565b90565b61129291905b8082111561128e576000816000905550600101611276565b5090565b90565b50805460018160011615610100020316600290046000825580601f106112bb57506112da565b601f0160209004906000526020600020908101906112d99190611270565b5b505600a165627a7a72305820d3d59add5772185346aa96385dacade1345ffceaeb413b00a61fb55163c1dd5c0029",
  "source": "pragma solidity ^0.4.15;\n\ncontract MercatusDeals {\n  uint dealsCount;\n  address public be = 0x873A2832898b17b5C12355769A7E2DAe6c2f92f7;\n  enum state { paid, verified, halted, finished}\n  enum currencyType { USDT, BTC, ETH}\n  struct Deal {\n    state  currentState;\n    uint  start;\n    uint  deadline;\n    uint  maxLoss;\n    uint  startBalance;\n    uint  targetBalance;\n    uint  amount;\n    currencyType  currency;\n    string  investor;\n    address  investorAddress;\n    string  trader;\n    address  traderAddress;\n  }\n  Deal[] public deals;\n  function MercatusDeals() payable{}\n  modifier onlyBe() {\n   require(msg.sender == be);\n   _;\n }\n  modifier inState(uint dealId, state s) {\n   require(deals[dealId].currentState == s);\n   _;\n }\n function getState(uint dealId) public constant returns (uint)  {\n   return uint(deals[dealId].currentState);\n }\n function getStart(uint dealId) public constant returns (uint)  {\n   return deals[dealId].start;\n }\n function setVerified(uint dealId) public  onlyBe inState(dealId, state.paid) {\n     deals[dealId].currentState = state.verified;\n}\n\n function setHalted(uint dealId) public  onlyBe {\n     require(deals[dealId].currentState == state.paid || deals[dealId].currentState == state.verified);\n     deals[dealId].traderAddress.transfer(deals[dealId].amount);\n     deals[dealId].currentState = state.halted;\n}\nfunction getSplit(uint finishAmount, uint startBalance, uint targetBalance, uint amount) public pure returns (uint) {\n    return ((finishAmount - startBalance) * amount) / ((targetBalance - startBalance) );\n}\n function setFinished(uint dealId, uint finishAmount) public  onlyBe inState(dealId, state.verified) {\n     if(finishAmount <= deals[dealId].startBalance){\n       deals[dealId].investorAddress.transfer(deals[dealId].amount);\n     }else if(finishAmount>deals[dealId].targetBalance){\n       deals[dealId].traderAddress.transfer(deals[dealId].amount);\n     }\n     else{\n        uint split = getSplit(finishAmount, deals[dealId].startBalance, deals[dealId].targetBalance, deals[dealId].amount);\n        deals[dealId].traderAddress.transfer(split);\n        deals[dealId].investorAddress.transfer(deals[dealId].amount - split);\n     }\n     deals[dealId].currentState = state.finished;\n}\n    function getDealsCount() public constant returns (uint){\n        return deals.length;\n    }\nfunction () public payable {\n}\n    function makeDeal(uint _duration, uint _maxLoss, uint _startBalance, uint _targetBalance, uint _amount,  string _investor, address _investorAddress, string _trader, address _traderAddress, uint offer, uint _currency)\n    payable public {\n      require( _currency >= 0 &&  _currency < 2  );\n      require(msg.value == _amount);\n        deals.push(Deal({\n            currentState: state.paid,\n            start: now,\n            deadline: 0,\n            maxLoss: _maxLoss,\n            startBalance: _startBalance,\n            targetBalance: _targetBalance,\n            amount: _amount,\n            currency: currencyType(_currency),\n            investor: _investor,\n            investorAddress: _investorAddress,\n            trader: _trader,\n            traderAddress: _traderAddress\n          }));\n          deals[deals.length-1].deadline = now +  _duration * 86400;\n        spawnInstance(msg.sender,deals.length-1, now, offer);\n    }\n    event spawnInstance(address indexed from, uint indexed dealId, uint start, uint offer);\n}\n",
  "sourcePath": "/root/repos/Contracts/contracts/MercatusDeals.sol",
  "compiler": {
    "name": "solc",
    "version": "0.4.18+commit.9cf6e910.Emscripten.clang"
  },
  "schemaVersion": "1.0.1",
  "updatedAt": "2018-02-08T05:13:39.185Z"
}