{
  "contractName": "MercatusFactory",
  "abi": [
    {
      "constant": false,
      "inputs": [
        {
          "name": "_duration",
          "type": "uint256"
        },
        {
          "name": "_maxLoss",
          "type": "uint256"
        },
        {
          "name": "_startBallance",
          "type": "uint256"
        },
        {
          "name": "_targetBallance",
          "type": "uint256"
        },
        {
          "name": "_amount",
          "type": "uint256"
        },
        {
          "name": "_investor",
          "type": "string"
        },
        {
          "name": "_investorAddress",
          "type": "address"
        },
        {
          "name": "_trader",
          "type": "string"
        },
        {
          "name": "_traderAddress",
          "type": "address"
        },
        {
          "name": "offer",
          "type": "uint256"
        },
        {
          "name": "_currency",
          "type": "uint256"
        }
      ],
      "name": "makeInstance",
      "outputs": [
        {
          "name": "",
          "type": "address"
        }
      ],
      "payable": true,
      "stateMutability": "payable",
      "type": "function"
    },
    {
      "anonymous": false,
      "inputs": [
        {
          "indexed": true,
          "name": "from",
          "type": "address"
        },
        {
          "indexed": true,
          "name": "instance",
          "type": "address"
        },
        {
          "indexed": false,
          "name": "offer",
          "type": "uint256"
        }
      ],
      "name": "spawnInstance",
      "type": "event"
    }
  ],
  "bytecode": "0x6060604052341561000f57600080fd5b6114818061001e6000396000f300606060405260043610610041576000357c0100000000000000000000000000000000000000000000000000000000900463ffffffff1680631ec2166f14610046575b600080fd5b610156600480803590602001909190803590602001909190803590602001909190803590602001909190803590602001909190803590602001908201803590602001908080601f0160208091040260200160405190810160405280939291908181526020018383808284378201915050505050509190803573ffffffffffffffffffffffffffffffffffffffff1690602001909190803590602001908201803590602001908080601f0160208091040260200160405190810160405280939291908181526020018383808284378201915050505050509190803573ffffffffffffffffffffffffffffffffffffffff16906020019091908035906020019091908035906020019091905050610198565b604051808273ffffffffffffffffffffffffffffffffffffffff1673ffffffffffffffffffffffffffffffffffffffff16815260200191505060405180910390f35b60008060008934101515156101ac57600080fd5b8d8d8d8d8d8d8d8d8d8c6101be610483565b808b81526020018a8152602001898152602001888152602001878152602001806020018673ffffffffffffffffffffffffffffffffffffffff1673ffffffffffffffffffffffffffffffffffffffff168152602001806020018573ffffffffffffffffffffffffffffffffffffffff1673ffffffffffffffffffffffffffffffffffffffff168152602001848152602001838103835288818151815260200191508051906020019080838360005b8381101561028757808201518184015260208101905061026c565b50505050905090810190601f1680156102b45780820380516001836020036101000a031916815260200191505b50838103825286818151815260200191508051906020019080838360005b838110156102ed5780820151818401526020810190506102d2565b50505050905090810190601f16801561031a5780820380516001836020036101000a031916815260200191505b509c50505050505050505050505050604051809103906000f080151561033f57600080fd5b91508173ffffffffffffffffffffffffffffffffffffffff1663e665b2666000604051602001526040518163ffffffff167c0100000000000000000000000000000000000000000000000000000000028152600401602060405180830381600087803b15156103ad57600080fd5b6102c65a03f115156103be57600080fd5b5050506040518051905090508073ffffffffffffffffffffffffffffffffffffffff163373ffffffffffffffffffffffffffffffffffffffff167f15b676eec5e6d49c5a355e2e487d39620fc003088fb987ea2f525c04904ef426876040518082815260200191505060405180910390a38073ffffffffffffffffffffffffffffffffffffffff166108fc349081150290604051600060405180830381858888f19350505050151561046f57600080fd5b80925050509b9a5050505050505050505050565b604051610fc28061049483390190560060606040527310367bd202112f862d715d093c0b78e26becdc9c6000806101000a81548173ffffffffffffffffffffffffffffffffffffffff021916908373ffffffffffffffffffffffffffffffffffffffff16021790555034156200006457600080fd5b60405162000fc238038062000fc28339810160405280805190602001909190805190602001909190805190602001909190805190602001909190805190602001909190805182019190602001805190602001909190805182019190602001805190602001909190805190602001909190505060008110158015620000e85750600281105b1515620000f457600080fd5b42600181905550620151808a0260015401600281905550886003819055508760048190555086600581905550856006819055508060018111156200013457fe5b600760006101000a81548160ff021916908360018111156200015257fe5b021790555084600890805190602001906200016f9291906200023f565b5083600960006101000a81548173ffffffffffffffffffffffffffffffffffffffff021916908373ffffffffffffffffffffffffffffffffffffffff16021790555082600a9080519060200190620001c99291906200023f565b5081600b60006101000a81548173ffffffffffffffffffffffffffffffffffffffff021916908373ffffffffffffffffffffffffffffffffffffffff16021790555060008060146101000a81548160ff021916908360038111156200022a57fe5b021790555050505050505050505050620002ee565b828054600181600116156101000203166002900490600052602060002090601f016020900481019282601f106200028257805160ff1916838001178555620002b3565b82800160010185558215620002b3579182015b82811115620002b257825182559160200191906001019062000295565b5b509050620002c29190620002c6565b5090565b620002eb91905b80821115620002e7576000816000905550600101620002cd565b5090565b90565b610cc480620002fe6000396000f3006060604052600436106100fc576000357c0100000000000000000000000000000000000000000000000000000000900463ffffffff1680630c3f6acf146100fe57806312e228fd146101355780631758078b1461018a5780631865c57d146102185780631e0018d61461024157806325411473146102cf57806329dcb0cf146103245780632bffee851461034d57806347ec8e21146103765780635783fe39146103cb57806368a0af0e146103f4578063924498661461041d57806396d43706146104405780639e17f6ef14610477578063aa8c217c1461048c578063be9a6555146104b5578063e5a6b10f146104de578063e665b26614610515575b005b341561010957600080fd5b61011161056a565b6040518082600381111561012157fe5b60ff16815260200191505060405180910390f35b341561014057600080fd5b61014861057d565b604051808273ffffffffffffffffffffffffffffffffffffffff1673ffffffffffffffffffffffffffffffffffffffff16815260200191505060405180910390f35b341561019557600080fd5b61019d6105a3565b6040518080602001828103825283818151815260200191508051906020019080838360005b838110156101dd5780820151818401526020810190506101c2565b50505050905090810190601f16801561020a5780820380516001836020036101000a031916815260200191505b509250505060405180910390f35b341561022357600080fd5b61022b610641565b6040518082815260200191505060405180910390f35b341561024c57600080fd5b610254610662565b6040518080602001828103825283818151815260200191508051906020019080838360005b83811015610294578082015181840152602081019050610279565b50505050905090810190601f1680156102c15780820380516001836020036101000a031916815260200191505b509250505060405180910390f35b34156102da57600080fd5b6102e2610700565b604051808273ffffffffffffffffffffffffffffffffffffffff1673ffffffffffffffffffffffffffffffffffffffff16815260200191505060405180910390f35b341561032f57600080fd5b610337610726565b6040518082815260200191505060405180910390f35b341561035857600080fd5b61036061072c565b6040518082815260200191505060405180910390f35b341561038157600080fd5b610389610732565b604051808273ffffffffffffffffffffffffffffffffffffffff1673ffffffffffffffffffffffffffffffffffffffff16815260200191505060405180910390f35b34156103d657600080fd5b6103de610757565b6040518082815260200191505060405180910390f35b34156103ff57600080fd5b61040761075d565b6040518082815260200191505060405180910390f35b341561042857600080fd5b61043e6004808035906020019091905050610763565b005b341561044b57600080fd5b610453610a47565b6040518082600381111561046357fe5b60ff16815260200191505060405180910390f35b341561048257600080fd5b61048a610bba565b005b341561049757600080fd5b61049f610c71565b6040518082815260200191505060405180910390f35b34156104c057600080fd5b6104c8610c77565b6040518082815260200191505060405180910390f35b34156104e957600080fd5b6104f1610c7d565b6040518082600181111561050157fe5b60ff16815260200191505060405180910390f35b341561052057600080fd5b610528610c90565b604051808273ffffffffffffffffffffffffffffffffffffffff1673ffffffffffffffffffffffffffffffffffffffff16815260200191505060405180910390f35b600060149054906101000a900460ff1681565b600960009054906101000a900473ffffffffffffffffffffffffffffffffffffffff1681565b600a8054600181600116156101000203166002900480601f0160208091040260200160405190810160405280929190818152602001828054600181600116156101000203166002900480156106395780601f1061060e57610100808354040283529160200191610639565b820191906000526020600020905b81548152906001019060200180831161061c57829003601f168201915b505050505081565b60008060149054906101000a900460ff16600381111561065d57fe5b905090565b60088054600181600116156101000203166002900480601f0160208091040260200160405190810160405280929190818152602001828054600181600116156101000203166002900480156106f85780601f106106cd576101008083540402835291602001916106f8565b820191906000526020600020905b8154815290600101906020018083116106db57829003601f168201915b505050505081565b600b60009054906101000a900473ffffffffffffffffffffffffffffffffffffffff1681565b60025481565b60055481565b6000809054906101000a900473ffffffffffffffffffffffffffffffffffffffff1681565b60035481565b60045481565b6000809054906101000a900473ffffffffffffffffffffffffffffffffffffffff1673ffffffffffffffffffffffffffffffffffffffff163373ffffffffffffffffffffffffffffffffffffffff161415156107be57600080fd5b60018060038111156107cc57fe5b600060149054906101000a900460ff1660038111156107e757fe5b1415156107f357600080fd5b6002544210151561080357600080fd5b6004548211151561088c57600960009054906101000a900473ffffffffffffffffffffffffffffffffffffffff1673ffffffffffffffffffffffffffffffffffffffff166108fc3073ffffffffffffffffffffffffffffffffffffffff16319081150290604051600060405180830381858888f19350505050151561088757600080fd5b610a1f565b60055482111561091457600b60009054906101000a900473ffffffffffffffffffffffffffffffffffffffff1673ffffffffffffffffffffffffffffffffffffffff166108fc3073ffffffffffffffffffffffffffffffffffffffff16319081150290604051600060405180830381858888f19350505050151561090f57600080fd5b610a1e565b600b60009054906101000a900473ffffffffffffffffffffffffffffffffffffffff1673ffffffffffffffffffffffffffffffffffffffff166108fc3073ffffffffffffffffffffffffffffffffffffffff163160045460055403600454860381151561097d57fe5b04029081150290604051600060405180830381858888f1935050505015156109a457600080fd5b600960009054906101000a900473ffffffffffffffffffffffffffffffffffffffff1673ffffffffffffffffffffffffffffffffffffffff166108fc3073ffffffffffffffffffffffffffffffffffffffff16319081150290604051600060405180830381858888f193505050501515610a1d57600080fd5b5b5b6003600060146101000a81548160ff02191690836003811115610a3e57fe5b02179055505050565b60008060009054906101000a900473ffffffffffffffffffffffffffffffffffffffff1673ffffffffffffffffffffffffffffffffffffffff163373ffffffffffffffffffffffffffffffffffffffff16141515610aa457600080fd5b60006003811115610ab157fe5b600060149054906101000a900460ff166003811115610acc57fe5b1480610afd575060016003811115610ae057fe5b600060149054906101000a900460ff166003811115610afb57fe5b145b1515610b0857600080fd5b600b60009054906101000a900473ffffffffffffffffffffffffffffffffffffffff1673ffffffffffffffffffffffffffffffffffffffff166108fc3073ffffffffffffffffffffffffffffffffffffffff16319081150290604051600060405180830381858888f193505050501515610b8157600080fd5b6002600060146101000a81548160ff02191690836003811115610ba057fe5b0217905550600060149054906101000a900460ff16905090565b6000809054906101000a900473ffffffffffffffffffffffffffffffffffffffff1673ffffffffffffffffffffffffffffffffffffffff163373ffffffffffffffffffffffffffffffffffffffff16141515610c1557600080fd5b6000806003811115610c2357fe5b600060149054906101000a900460ff166003811115610c3e57fe5b141515610c4a57600080fd5b6001600060146101000a81548160ff02191690836003811115610c6957fe5b021790555050565b60065481565b60015481565b600760009054906101000a900460ff1681565b6000309050905600a165627a7a723058203cfb5f3d8c3dd13e6dfe0dc3a027a4fbf1724ad2be65f8393c031e387ca290ca0029a165627a7a723058203070b0524416863e4cc73a093c29cd6e2c85caabb6685fa4ba22e9a008da9e600029",
  "source": "pragma solidity ^0.4.15;\n\nimport './MercatusInstance.sol';\ncontract MercatusFactory {\n    function makeInstance(uint _duration, uint256 _maxLoss, uint256 _startBallance, uint256 _targetBallance, uint256 _amount,  string _investor, address _investorAddress, string _trader, address _traderAddress, uint256 offer, uint _currency)\n    payable\n    returns (address){\n      require(msg.value >= _amount);\n        MercatusInstance mI =  (new MercatusInstance(_duration, _maxLoss, _startBallance, _targetBallance, _amount , _investor, _investorAddress, _trader, _traderAddress, _currency));\n        address instanceAddr = mI.myAddr();\n        spawnInstance(msg.sender,instanceAddr,offer);\n        instanceAddr.transfer(msg.value);\n        return instanceAddr;\n    }\n    event spawnInstance(address indexed from, address indexed instance, uint256 offer);\n}\n",
  "sourcePath": "/home/dev/repos/mercatusBlockchain/contracts/MercatusFactory.sol",
  "compiler": {
    "name": "solc",
    "version": "0.4.18+commit.9cf6e910.Emscripten.clang"
  },
  "schemaVersion": "1.0.1",
  "updatedAt": "2017-11-16T15:32:16.796Z"
}