{
  "contractName": "MercatusTrades",
  "abi": [
    {
      "constant": false,
      "inputs": [
        {
          "name": "hash",
          "type": "uint256"
        }
      ],
      "name": "addTradesBlock",
      "outputs": [],
      "payable": false,
      "stateMutability": "nonpayable",
      "type": "function"
    },
    {
      "anonymous": false,
      "inputs": [
        {
          "indexed": false,
          "name": "hash",
          "type": "uint256"
        }
      ],
      "name": "TradesBlock",
      "type": "event"
    }
  ],
  "bytecode": "0x606060405273873a2832898b17b5c12355769a7e2dae6c2f92f76000806101000a81548173ffffffffffffffffffffffffffffffffffffffff021916908373ffffffffffffffffffffffffffffffffffffffff160217905550341561006357600080fd5b6101a4806100726000396000f300606060405260043610610041576000357c0100000000000000000000000000000000000000000000000000000000900463ffffffff168063c112f5f514610046575b600080fd5b341561005157600080fd5b6100676004808035906020019091905050610069565b005b6000809054906101000a900473ffffffffffffffffffffffffffffffffffffffff1673ffffffffffffffffffffffffffffffffffffffff163373ffffffffffffffffffffffffffffffffffffffff161415156100c457600080fd5b600180548060010182816100d89190610127565b9160005260206000209001600083909190915055507f2cf1ee4f60d445ddd85f608c681230dcef1046eab3fdda269fa646469c42d0ce816040518082815260200191505060405180910390a150565b81548183558181151161014e5781836000526020600020918201910161014d9190610153565b5b505050565b61017591905b80821115610171576000816000905550600101610159565b5090565b905600a165627a7a7230582090ebad62f5e59b3491903a25d996c4a38db8e5523716fb762b56e6db74c4b24e0029",
  "source": "pragma solidity ^0.4.15;\ncontract MercatusTrades {\n    address be = 0x873A2832898b17b5C12355769A7E2DAe6c2f92f7;\n    uint[] trades;\n    modifier onlyBe() {\n        require(msg.sender == be);\n        _;\n    }\n    function addTradesBlock(uint hash) onlyBe public{\n        trades.push(hash);\n        TradesBlock(hash);\n    }\n    event TradesBlock(\n        uint hash\n    );\n}\n",
  "sourcePath": "/root/repos/Contracts/contracts/MercatusTrades.sol",
  "compiler": {
    "name": "solc",
    "version": "0.4.18+commit.9cf6e910.Emscripten.clang"
  },
  "schemaVersion": "1.0.1",
  "updatedAt": "2018-02-08T19:02:10.305Z"
}