{
  "contractName": "MercatusInstance",
  "abi": [
    {
      "constant": true,
      "inputs": [],
      "name": "currentState",
      "outputs": [
        {
          "name": "",
          "type": "uint8"
        }
      ],
      "payable": false,
      "stateMutability": "view",
      "type": "function"
    },
    {
      "constant": true,
      "inputs": [],
      "name": "investorAddress",
      "outputs": [
        {
          "name": "",
          "type": "address"
        }
      ],
      "payable": false,
      "stateMutability": "view",
      "type": "function"
    },
    {
      "constant": true,
      "inputs": [],
      "name": "trader",
      "outputs": [
        {
          "name": "",
          "type": "string"
        }
      ],
      "payable": false,
      "stateMutability": "view",
      "type": "function"
    },
    {
      "constant": true,
      "inputs": [],
      "name": "getState",
      "outputs": [
        {
          "name": "",
          "type": "uint256"
        }
      ],
      "payable": false,
      "stateMutability": "view",
      "type": "function"
    },
    {
      "constant": true,
      "inputs": [],
      "name": "investor",
      "outputs": [
        {
          "name": "",
          "type": "string"
        }
      ],
      "payable": false,
      "stateMutability": "view",
      "type": "function"
    },
    {
      "constant": true,
      "inputs": [],
      "name": "traderAddress",
      "outputs": [
        {
          "name": "",
          "type": "address"
        }
      ],
      "payable": false,
      "stateMutability": "view",
      "type": "function"
    },
    {
      "constant": true,
      "inputs": [],
      "name": "deadline",
      "outputs": [
        {
          "name": "",
          "type": "uint256"
        }
      ],
      "payable": false,
      "stateMutability": "view",
      "type": "function"
    },
    {
      "constant": true,
      "inputs": [],
      "name": "targetBallance",
      "outputs": [
        {
          "name": "",
          "type": "uint256"
        }
      ],
      "payable": false,
      "stateMutability": "view",
      "type": "function"
    },
    {
      "constant": true,
      "inputs": [],
      "name": "be",
      "outputs": [
        {
          "name": "",
          "type": "address"
        }
      ],
      "payable": false,
      "stateMutability": "view",
      "type": "function"
    },
    {
      "constant": true,
      "inputs": [],
      "name": "maxLoss",
      "outputs": [
        {
          "name": "",
          "type": "uint256"
        }
      ],
      "payable": false,
      "stateMutability": "view",
      "type": "function"
    },
    {
      "constant": true,
      "inputs": [],
      "name": "startBallance",
      "outputs": [
        {
          "name": "",
          "type": "uint256"
        }
      ],
      "payable": false,
      "stateMutability": "view",
      "type": "function"
    },
    {
      "constant": false,
      "inputs": [
        {
          "name": "finishAmount",
          "type": "uint256"
        }
      ],
      "name": "setFinished",
      "outputs": [],
      "payable": false,
      "stateMutability": "nonpayable",
      "type": "function"
    },
    {
      "constant": false,
      "inputs": [],
      "name": "setHalted",
      "outputs": [
        {
          "name": "",
          "type": "uint8"
        }
      ],
      "payable": false,
      "stateMutability": "nonpayable",
      "type": "function"
    },
    {
      "constant": false,
      "inputs": [],
      "name": "setVerified",
      "outputs": [],
      "payable": false,
      "stateMutability": "nonpayable",
      "type": "function"
    },
    {
      "constant": true,
      "inputs": [],
      "name": "amount",
      "outputs": [
        {
          "name": "",
          "type": "uint256"
        }
      ],
      "payable": false,
      "stateMutability": "view",
      "type": "function"
    },
    {
      "constant": true,
      "inputs": [],
      "name": "start",
      "outputs": [
        {
          "name": "",
          "type": "uint256"
        }
      ],
      "payable": false,
      "stateMutability": "view",
      "type": "function"
    },
    {
      "constant": true,
      "inputs": [],
      "name": "currency",
      "outputs": [
        {
          "name": "",
          "type": "uint8"
        }
      ],
      "payable": false,
      "stateMutability": "view",
      "type": "function"
    },
    {
      "constant": true,
      "inputs": [],
      "name": "myAddr",
      "outputs": [
        {
          "name": "",
          "type": "address"
        }
      ],
      "payable": false,
      "stateMutability": "view",
      "type": "function"
    },
    {
      "inputs": [
        {
          "name": "duration",
          "type": "uint256"
        },
        {
          "name": "_maxLoss",
          "type": "uint256"
        },
        {
          "name": "_startBallance",
          "type": "uint256"
        },
        {
          "name": "_targetBallance",
          "type": "uint256"
        },
        {
          "name": "_amount",
          "type": "uint256"
        },
        {
          "name": "_investor",
          "type": "string"
        },
        {
          "name": "_investorAddress",
          "type": "address"
        },
        {
          "name": "_trader",
          "type": "string"
        },
        {
          "name": "_traderAddress",
          "type": "address"
        },
        {
          "name": "_currency",
          "type": "uint256"
        }
      ],
      "payable": false,
      "stateMutability": "nonpayable",
      "type": "constructor"
    },
    {
      "payable": true,
      "stateMutability": "payable",
      "type": "fallback"
    }
  ],
  "bytecode": "0x60606040527310367bd202112f862d715d093c0b78e26becdc9c6000806101000a81548173ffffffffffffffffffffffffffffffffffffffff021916908373ffffffffffffffffffffffffffffffffffffffff16021790555034156200006457600080fd5b60405162000fc238038062000fc28339810160405280805190602001909190805190602001909190805190602001909190805190602001909190805190602001909190805182019190602001805190602001909190805182019190602001805190602001909190805190602001909190505060008110158015620000e85750600281105b1515620000f457600080fd5b42600181905550620151808a0260015401600281905550886003819055508760048190555086600581905550856006819055508060018111156200013457fe5b600760006101000a81548160ff021916908360018111156200015257fe5b021790555084600890805190602001906200016f9291906200023f565b5083600960006101000a81548173ffffffffffffffffffffffffffffffffffffffff021916908373ffffffffffffffffffffffffffffffffffffffff16021790555082600a9080519060200190620001c99291906200023f565b5081600b60006101000a81548173ffffffffffffffffffffffffffffffffffffffff021916908373ffffffffffffffffffffffffffffffffffffffff16021790555060008060146101000a81548160ff021916908360038111156200022a57fe5b021790555050505050505050505050620002ee565b828054600181600116156101000203166002900490600052602060002090601f016020900481019282601f106200028257805160ff1916838001178555620002b3565b82800160010185558215620002b3579182015b82811115620002b257825182559160200191906001019062000295565b5b509050620002c29190620002c6565b5090565b620002eb91905b80821115620002e7576000816000905550600101620002cd565b5090565b90565b610cc480620002fe6000396000f3006060604052600436106100fc576000357c0100000000000000000000000000000000000000000000000000000000900463ffffffff1680630c3f6acf146100fe57806312e228fd146101355780631758078b1461018a5780631865c57d146102185780631e0018d61461024157806325411473146102cf57806329dcb0cf146103245780632bffee851461034d57806347ec8e21146103765780635783fe39146103cb57806368a0af0e146103f4578063924498661461041d57806396d43706146104405780639e17f6ef14610477578063aa8c217c1461048c578063be9a6555146104b5578063e5a6b10f146104de578063e665b26614610515575b005b341561010957600080fd5b61011161056a565b6040518082600381111561012157fe5b60ff16815260200191505060405180910390f35b341561014057600080fd5b61014861057d565b604051808273ffffffffffffffffffffffffffffffffffffffff1673ffffffffffffffffffffffffffffffffffffffff16815260200191505060405180910390f35b341561019557600080fd5b61019d6105a3565b6040518080602001828103825283818151815260200191508051906020019080838360005b838110156101dd5780820151818401526020810190506101c2565b50505050905090810190601f16801561020a5780820380516001836020036101000a031916815260200191505b509250505060405180910390f35b341561022357600080fd5b61022b610641565b6040518082815260200191505060405180910390f35b341561024c57600080fd5b610254610662565b6040518080602001828103825283818151815260200191508051906020019080838360005b83811015610294578082015181840152602081019050610279565b50505050905090810190601f1680156102c15780820380516001836020036101000a031916815260200191505b509250505060405180910390f35b34156102da57600080fd5b6102e2610700565b604051808273ffffffffffffffffffffffffffffffffffffffff1673ffffffffffffffffffffffffffffffffffffffff16815260200191505060405180910390f35b341561032f57600080fd5b610337610726565b6040518082815260200191505060405180910390f35b341561035857600080fd5b61036061072c565b6040518082815260200191505060405180910390f35b341561038157600080fd5b610389610732565b604051808273ffffffffffffffffffffffffffffffffffffffff1673ffffffffffffffffffffffffffffffffffffffff16815260200191505060405180910390f35b34156103d657600080fd5b6103de610757565b6040518082815260200191505060405180910390f35b34156103ff57600080fd5b61040761075d565b6040518082815260200191505060405180910390f35b341561042857600080fd5b61043e6004808035906020019091905050610763565b005b341561044b57600080fd5b610453610a47565b6040518082600381111561046357fe5b60ff16815260200191505060405180910390f35b341561048257600080fd5b61048a610bba565b005b341561049757600080fd5b61049f610c71565b6040518082815260200191505060405180910390f35b34156104c057600080fd5b6104c8610c77565b6040518082815260200191505060405180910390f35b34156104e957600080fd5b6104f1610c7d565b6040518082600181111561050157fe5b60ff16815260200191505060405180910390f35b341561052057600080fd5b610528610c90565b604051808273ffffffffffffffffffffffffffffffffffffffff1673ffffffffffffffffffffffffffffffffffffffff16815260200191505060405180910390f35b600060149054906101000a900460ff1681565b600960009054906101000a900473ffffffffffffffffffffffffffffffffffffffff1681565b600a8054600181600116156101000203166002900480601f0160208091040260200160405190810160405280929190818152602001828054600181600116156101000203166002900480156106395780601f1061060e57610100808354040283529160200191610639565b820191906000526020600020905b81548152906001019060200180831161061c57829003601f168201915b505050505081565b60008060149054906101000a900460ff16600381111561065d57fe5b905090565b60088054600181600116156101000203166002900480601f0160208091040260200160405190810160405280929190818152602001828054600181600116156101000203166002900480156106f85780601f106106cd576101008083540402835291602001916106f8565b820191906000526020600020905b8154815290600101906020018083116106db57829003601f168201915b505050505081565b600b60009054906101000a900473ffffffffffffffffffffffffffffffffffffffff1681565b60025481565b60055481565b6000809054906101000a900473ffffffffffffffffffffffffffffffffffffffff1681565b60035481565b60045481565b6000809054906101000a900473ffffffffffffffffffffffffffffffffffffffff1673ffffffffffffffffffffffffffffffffffffffff163373ffffffffffffffffffffffffffffffffffffffff161415156107be57600080fd5b60018060038111156107cc57fe5b600060149054906101000a900460ff1660038111156107e757fe5b1415156107f357600080fd5b6002544210151561080357600080fd5b6004548211151561088c57600960009054906101000a900473ffffffffffffffffffffffffffffffffffffffff1673ffffffffffffffffffffffffffffffffffffffff166108fc3073ffffffffffffffffffffffffffffffffffffffff16319081150290604051600060405180830381858888f19350505050151561088757600080fd5b610a1f565b60055482111561091457600b60009054906101000a900473ffffffffffffffffffffffffffffffffffffffff1673ffffffffffffffffffffffffffffffffffffffff166108fc3073ffffffffffffffffffffffffffffffffffffffff16319081150290604051600060405180830381858888f19350505050151561090f57600080fd5b610a1e565b600b60009054906101000a900473ffffffffffffffffffffffffffffffffffffffff1673ffffffffffffffffffffffffffffffffffffffff166108fc3073ffffffffffffffffffffffffffffffffffffffff163160045460055403600454860381151561097d57fe5b04029081150290604051600060405180830381858888f1935050505015156109a457600080fd5b600960009054906101000a900473ffffffffffffffffffffffffffffffffffffffff1673ffffffffffffffffffffffffffffffffffffffff166108fc3073ffffffffffffffffffffffffffffffffffffffff16319081150290604051600060405180830381858888f193505050501515610a1d57600080fd5b5b5b6003600060146101000a81548160ff02191690836003811115610a3e57fe5b02179055505050565b60008060009054906101000a900473ffffffffffffffffffffffffffffffffffffffff1673ffffffffffffffffffffffffffffffffffffffff163373ffffffffffffffffffffffffffffffffffffffff16141515610aa457600080fd5b60006003811115610ab157fe5b600060149054906101000a900460ff166003811115610acc57fe5b1480610afd575060016003811115610ae057fe5b600060149054906101000a900460ff166003811115610afb57fe5b145b1515610b0857600080fd5b600b60009054906101000a900473ffffffffffffffffffffffffffffffffffffffff1673ffffffffffffffffffffffffffffffffffffffff166108fc3073ffffffffffffffffffffffffffffffffffffffff16319081150290604051600060405180830381858888f193505050501515610b8157600080fd5b6002600060146101000a81548160ff02191690836003811115610ba057fe5b0217905550600060149054906101000a900460ff16905090565b6000809054906101000a900473ffffffffffffffffffffffffffffffffffffffff1673ffffffffffffffffffffffffffffffffffffffff163373ffffffffffffffffffffffffffffffffffffffff16141515610c1557600080fd5b6000806003811115610c2357fe5b600060149054906101000a900460ff166003811115610c3e57fe5b141515610c4a57600080fd5b6001600060146101000a81548160ff02191690836003811115610c6957fe5b021790555050565b60065481565b60015481565b600760009054906101000a900460ff1681565b6000309050905600a165627a7a723058203cfb5f3d8c3dd13e6dfe0dc3a027a4fbf1724ad2be65f8393c031e387ca290ca0029",
  "source": "pragma solidity ^0.4.15;\n\ncontract MercatusInstance {\n    address public be = 0x10367bD202112F862d715D093C0B78E26BEcdc9C;\n    enum state { paid, verified, halted, finished}\n    enum currencyType { USDT, BTC}\n    state public currentState;\n    uint256 public start;\n    uint256 public deadline;\n    uint256 public maxLoss;\n    uint256 public startBallance;\n    uint256 public targetBallance;\n    uint256 public amount;\n    currencyType public currency;\n    string public investor;\n    address public investorAddress;\n    string public trader;\n    address public traderAddress;\n    function MercatusInstance(uint duration, uint _maxLoss, uint _startBallance, uint _targetBallance, uint256 _amount,  string _investor, address _investorAddress, string _trader, address _traderAddress, uint _currency){\n        require( _currency >= 0 &&  _currency < 2  );\n        start = now;\n        deadline = start + duration * 86400;\n        maxLoss = _maxLoss;\n        startBallance = _startBallance;\n        targetBallance = _targetBallance;\n        amount = _amount;\n        currency = currencyType(_currency);\n        investor = _investor;\n        investorAddress = _investorAddress;\n        trader = _trader;\n        traderAddress = _traderAddress;\n        currentState = state.paid;\n    }\n    function myAddr() public constant returns(address) {\n      return this;\n   }\n   modifier onlyBe() {\n    require(msg.sender == be);\n    _;\n  }\n   modifier inState(state s) {\n    require(currentState == s);\n    _;\n  }\n  function getState() public constant returns (uint)  {\n    return uint(currentState);\n  }\n    function setVerified() external  onlyBe inState(state.paid) {\n        currentState = state.verified;\n   }\n\n    function setHalted() external  onlyBe returns(state) {\n\n        require(currentState == state.paid || currentState == state.verified);\n        traderAddress.transfer(this.balance);\n        currentState = state.halted;\n      return currentState;\n   }\n    function setFinished(uint finishAmount) external  onlyBe inState(state.verified) {\n        require(now < deadline);\n        if(finishAmount<=startBallance){\n          investorAddress.transfer(this.balance);\n        }else if(finishAmount>targetBallance){\n          traderAddress.transfer(this.balance);\n        }\n        else{\n          traderAddress.transfer(((finishAmount-startBallance)/(targetBallance-startBallance))*this.balance);\n          investorAddress.transfer(this.balance);\n        }\n        currentState = state.finished;\n   }\n   function () public payable {\n   }\n}\n",
  "sourcePath": "/home/dev/repos/mercatusBlockchain/contracts/MercatusInstance.sol",
  "compiler": {
    "name": "solc",
    "version": "0.4.18+commit.9cf6e910.Emscripten.clang"
  },
  "schemaVersion": "1.0.1",
  "updatedAt": "2017-11-16T15:32:16.793Z"
}