{
  "contractName": "MercatusInstance",
  "abi": [
    {
      "constant": true,
      "inputs": [],
      "name": "currentState",
      "outputs": [
        {
          "name": "",
          "type": "uint8"
        }
      ],
      "payable": false,
      "stateMutability": "view",
      "type": "function"
    },
    {
      "constant": true,
      "inputs": [],
      "name": "investorAddress",
      "outputs": [
        {
          "name": "",
          "type": "address"
        }
      ],
      "payable": false,
      "stateMutability": "view",
      "type": "function"
    },
    {
      "constant": true,
      "inputs": [],
      "name": "trader",
      "outputs": [
        {
          "name": "",
          "type": "string"
        }
      ],
      "payable": false,
      "stateMutability": "view",
      "type": "function"
    },
    {
      "constant": true,
      "inputs": [],
      "name": "getState",
      "outputs": [
        {
          "name": "",
          "type": "uint256"
        }
      ],
      "payable": false,
      "stateMutability": "view",
      "type": "function"
    },
    {
      "constant": true,
      "inputs": [],
      "name": "investor",
      "outputs": [
        {
          "name": "",
          "type": "string"
        }
      ],
      "payable": false,
      "stateMutability": "view",
      "type": "function"
    },
    {
      "constant": true,
      "inputs": [],
      "name": "traderAddress",
      "outputs": [
        {
          "name": "",
          "type": "address"
        }
      ],
      "payable": false,
      "stateMutability": "view",
      "type": "function"
    },
    {
      "constant": true,
      "inputs": [],
      "name": "deadline",
      "outputs": [
        {
          "name": "",
          "type": "uint256"
        }
      ],
      "payable": false,
      "stateMutability": "view",
      "type": "function"
    },
    {
      "constant": true,
      "inputs": [],
      "name": "startBalance",
      "outputs": [
        {
          "name": "",
          "type": "uint256"
        }
      ],
      "payable": false,
      "stateMutability": "view",
      "type": "function"
    },
    {
      "constant": true,
      "inputs": [],
      "name": "targetBalance",
      "outputs": [
        {
          "name": "",
          "type": "uint256"
        }
      ],
      "payable": false,
      "stateMutability": "view",
      "type": "function"
    },
    {
      "constant": true,
      "inputs": [],
      "name": "be",
      "outputs": [
        {
          "name": "",
          "type": "address"
        }
      ],
      "payable": false,
      "stateMutability": "view",
      "type": "function"
    },
    {
      "constant": true,
      "inputs": [],
      "name": "maxLoss",
      "outputs": [
        {
          "name": "",
          "type": "uint256"
        }
      ],
      "payable": false,
      "stateMutability": "view",
      "type": "function"
    },
    {
      "constant": false,
      "inputs": [
        {
          "name": "finishAmount",
          "type": "uint256"
        }
      ],
      "name": "setFinished",
      "outputs": [],
      "payable": false,
      "stateMutability": "nonpayable",
      "type": "function"
    },
    {
      "constant": false,
      "inputs": [],
      "name": "setHalted",
      "outputs": [],
      "payable": false,
      "stateMutability": "nonpayable",
      "type": "function"
    },
    {
      "constant": false,
      "inputs": [],
      "name": "setVerified",
      "outputs": [],
      "payable": false,
      "stateMutability": "nonpayable",
      "type": "function"
    },
    {
      "constant": true,
      "inputs": [],
      "name": "amount",
      "outputs": [
        {
          "name": "",
          "type": "uint256"
        }
      ],
      "payable": false,
      "stateMutability": "view",
      "type": "function"
    },
    {
      "constant": true,
      "inputs": [],
      "name": "start",
      "outputs": [
        {
          "name": "",
          "type": "uint256"
        }
      ],
      "payable": false,
      "stateMutability": "view",
      "type": "function"
    },
    {
      "constant": true,
      "inputs": [],
      "name": "getStart",
      "outputs": [
        {
          "name": "",
          "type": "uint256"
        }
      ],
      "payable": false,
      "stateMutability": "view",
      "type": "function"
    },
    {
      "constant": true,
      "inputs": [],
      "name": "currency",
      "outputs": [
        {
          "name": "",
          "type": "uint8"
        }
      ],
      "payable": false,
      "stateMutability": "view",
      "type": "function"
    },
    {
      "constant": true,
      "inputs": [],
      "name": "myAddr",
      "outputs": [
        {
          "name": "",
          "type": "address"
        }
      ],
      "payable": false,
      "stateMutability": "view",
      "type": "function"
    },
    {
      "inputs": [
        {
          "name": "duration",
          "type": "uint256"
        },
        {
          "name": "_maxLoss",
          "type": "uint256"
        },
        {
          "name": "_startBalance",
          "type": "uint256"
        },
        {
          "name": "_targetBalance",
          "type": "uint256"
        },
        {
          "name": "_amount",
          "type": "uint256"
        },
        {
          "name": "_investor",
          "type": "string"
        },
        {
          "name": "_investorAddress",
          "type": "address"
        },
        {
          "name": "_trader",
          "type": "string"
        },
        {
          "name": "_traderAddress",
          "type": "address"
        },
        {
          "name": "_currency",
          "type": "uint256"
        }
      ],
      "payable": true,
      "stateMutability": "payable",
      "type": "constructor"
    },
    {
      "payable": true,
      "stateMutability": "payable",
      "type": "fallback"
    }
  ],
  "bytecode": "0x60606040527310367bd202112f862d715d093c0b78e26becdc9c6000806101000a81548173ffffffffffffffffffffffffffffffffffffffff021916908373ffffffffffffffffffffffffffffffffffffffff16021790555060405162000fad38038062000fad8339810160405280805190602001909190805190602001909190805190602001909190805190602001909190805190602001909190805182019190602001805190602001909190805182019190602001805190602001909190805190602001909190505060008110158015620000dc5750600281105b1515620000e857600080fd5b42600181905550620151808a0260015401600281905550886003819055508760048190555086600581905550856006819055508060028111156200012857fe5b600760006101000a81548160ff021916908360028111156200014657fe5b021790555084600890805190602001906200016392919062000233565b5083600960006101000a81548173ffffffffffffffffffffffffffffffffffffffff021916908373ffffffffffffffffffffffffffffffffffffffff16021790555082600a9080519060200190620001bd92919062000233565b5081600b60006101000a81548173ffffffffffffffffffffffffffffffffffffffff021916908373ffffffffffffffffffffffffffffffffffffffff16021790555060008060146101000a81548160ff021916908360038111156200021e57fe5b021790555050505050505050505050620002e2565b828054600181600116156101000203166002900490600052602060002090601f016020900481019282601f106200027657805160ff1916838001178555620002a7565b82800160010185558215620002a7579182015b82811115620002a657825182559160200191906001019062000289565b5b509050620002b69190620002ba565b5090565b620002df91905b80821115620002db576000816000905550600101620002c1565b5090565b90565b610cbb80620002f26000396000f300606060405260043610610107576000357c0100000000000000000000000000000000000000000000000000000000900463ffffffff1680630c3f6acf1461010957806312e228fd146101405780631758078b146101955780631865c57d146102235780631e0018d61461024c57806325411473146102da57806329dcb0cf1461032f5780632bb9ffef1461035857806343cce08e1461038157806347ec8e21146103aa5780635783fe39146103ff578063924498661461042857806396d437061461044b5780639e17f6ef14610460578063aa8c217c14610475578063be9a65551461049e578063c5292c67146104c7578063e5a6b10f146104f0578063e665b26614610527575b005b341561011457600080fd5b61011c61057c565b6040518082600381111561012c57fe5b60ff16815260200191505060405180910390f35b341561014b57600080fd5b61015361058f565b604051808273ffffffffffffffffffffffffffffffffffffffff1673ffffffffffffffffffffffffffffffffffffffff16815260200191505060405180910390f35b34156101a057600080fd5b6101a86105b5565b6040518080602001828103825283818151815260200191508051906020019080838360005b838110156101e85780820151818401526020810190506101cd565b50505050905090810190601f1680156102155780820380516001836020036101000a031916815260200191505b509250505060405180910390f35b341561022e57600080fd5b610236610653565b6040518082815260200191505060405180910390f35b341561025757600080fd5b61025f610674565b6040518080602001828103825283818151815260200191508051906020019080838360005b8381101561029f578082015181840152602081019050610284565b50505050905090810190601f1680156102cc5780820380516001836020036101000a031916815260200191505b509250505060405180910390f35b34156102e557600080fd5b6102ed610712565b604051808273ffffffffffffffffffffffffffffffffffffffff1673ffffffffffffffffffffffffffffffffffffffff16815260200191505060405180910390f35b341561033a57600080fd5b610342610738565b6040518082815260200191505060405180910390f35b341561036357600080fd5b61036b61073e565b6040518082815260200191505060405180910390f35b341561038c57600080fd5b610394610744565b6040518082815260200191505060405180910390f35b34156103b557600080fd5b6103bd61074a565b604051808273ffffffffffffffffffffffffffffffffffffffff1673ffffffffffffffffffffffffffffffffffffffff16815260200191505060405180910390f35b341561040a57600080fd5b61041261076f565b6040518082815260200191505060405180910390f35b341561043357600080fd5b6104496004808035906020019091905050610775565b005b341561045657600080fd5b61045e610a49565b005b341561046b57600080fd5b610473610ba7565b005b341561048057600080fd5b610488610c5e565b6040518082815260200191505060405180910390f35b34156104a957600080fd5b6104b1610c64565b6040518082815260200191505060405180910390f35b34156104d257600080fd5b6104da610c6a565b6040518082815260200191505060405180910390f35b34156104fb57600080fd5b610503610c74565b6040518082600281111561051357fe5b60ff16815260200191505060405180910390f35b341561053257600080fd5b61053a610c87565b604051808273ffffffffffffffffffffffffffffffffffffffff1673ffffffffffffffffffffffffffffffffffffffff16815260200191505060405180910390f35b600060149054906101000a900460ff1681565b600960009054906101000a900473ffffffffffffffffffffffffffffffffffffffff1681565b600a8054600181600116156101000203166002900480601f01602080910402602001604051908101604052809291908181526020018280546001816001161561010002031660029004801561064b5780601f106106205761010080835404028352916020019161064b565b820191906000526020600020905b81548152906001019060200180831161062e57829003601f168201915b505050505081565b60008060149054906101000a900460ff16600381111561066f57fe5b905090565b60088054600181600116156101000203166002900480601f01602080910402602001604051908101604052809291908181526020018280546001816001161561010002031660029004801561070a5780601f106106df5761010080835404028352916020019161070a565b820191906000526020600020905b8154815290600101906020018083116106ed57829003601f168201915b505050505081565b600b60009054906101000a900473ffffffffffffffffffffffffffffffffffffffff1681565b60025481565b60045481565b60055481565b6000809054906101000a900473ffffffffffffffffffffffffffffffffffffffff1681565b60035481565b6000809054906101000a900473ffffffffffffffffffffffffffffffffffffffff1673ffffffffffffffffffffffffffffffffffffffff163373ffffffffffffffffffffffffffffffffffffffff161415156107d057600080fd5b60018060038111156107de57fe5b600060149054906101000a900460ff1660038111156107f957fe5b14151561080557600080fd5b6004548211151561088e57600960009054906101000a900473ffffffffffffffffffffffffffffffffffffffff1673ffffffffffffffffffffffffffffffffffffffff166108fc3073ffffffffffffffffffffffffffffffffffffffff16319081150290604051600060405180830381858888f19350505050151561088957600080fd5b610a21565b60055482111561091657600b60009054906101000a900473ffffffffffffffffffffffffffffffffffffffff1673ffffffffffffffffffffffffffffffffffffffff166108fc3073ffffffffffffffffffffffffffffffffffffffff16319081150290604051600060405180830381858888f19350505050151561091157600080fd5b610a20565b600b60009054906101000a900473ffffffffffffffffffffffffffffffffffffffff1673ffffffffffffffffffffffffffffffffffffffff166108fc3073ffffffffffffffffffffffffffffffffffffffff163160045460055403600454860381151561097f57fe5b04029081150290604051600060405180830381858888f1935050505015156109a657600080fd5b600960009054906101000a900473ffffffffffffffffffffffffffffffffffffffff1673ffffffffffffffffffffffffffffffffffffffff166108fc3073ffffffffffffffffffffffffffffffffffffffff16319081150290604051600060405180830381858888f193505050501515610a1f57600080fd5b5b5b6003600060146101000a81548160ff02191690836003811115610a4057fe5b02179055505050565b6000809054906101000a900473ffffffffffffffffffffffffffffffffffffffff1673ffffffffffffffffffffffffffffffffffffffff163373ffffffffffffffffffffffffffffffffffffffff16141515610aa457600080fd5b60006003811115610ab157fe5b600060149054906101000a900460ff166003811115610acc57fe5b1480610afd575060016003811115610ae057fe5b600060149054906101000a900460ff166003811115610afb57fe5b145b1515610b0857600080fd5b600b60009054906101000a900473ffffffffffffffffffffffffffffffffffffffff1673ffffffffffffffffffffffffffffffffffffffff166108fc3073ffffffffffffffffffffffffffffffffffffffff16319081150290604051600060405180830381858888f193505050501515610b8157600080fd5b6002600060146101000a81548160ff02191690836003811115610ba057fe5b0217905550565b6000809054906101000a900473ffffffffffffffffffffffffffffffffffffffff1673ffffffffffffffffffffffffffffffffffffffff163373ffffffffffffffffffffffffffffffffffffffff16141515610c0257600080fd5b6000806003811115610c1057fe5b600060149054906101000a900460ff166003811115610c2b57fe5b141515610c3757600080fd5b6001600060146101000a81548160ff02191690836003811115610c5657fe5b021790555050565b60065481565b60015481565b6000600154905090565b600760009054906101000a900460ff1681565b6000309050905600a165627a7a72305820a45690d10a71dd8450cbb2bff17bde034ddf596db220b1211d57499b902bdce50029",
  "source": "pragma solidity ^0.4.15;\n\ncontract MercatusInstance {\n    address public be = 0x10367bD202112F862d715D093C0B78E26BEcdc9C;\n    enum state { paid, verified, halted, finished}\n    enum currencyType { USDT, BTC, ETH}\n    state public currentState;\n    uint public start;\n    uint public deadline;\n    uint public maxLoss;\n    uint public startBalance;\n    uint public targetBalance;\n    uint public amount;\n    currencyType public currency;\n    string public investor;\n    address public investorAddress;\n    string public trader;\n    address public traderAddress;\n    function MercatusInstance(uint duration, uint _maxLoss, uint _startBalance, uint _targetBalance, uint _amount,  string _investor, address _investorAddress, string _trader, address _traderAddress, uint _currency) public payable{\n        require( _currency >= 0 &&  _currency < 2  );\n        start = now;\n        deadline = start + duration * 86400;\n        maxLoss = _maxLoss;\n        startBalance = _startBalance;\n        targetBalance = _targetBalance;\n        amount = _amount;\n        currency = currencyType(_currency);\n        investor = _investor;\n        investorAddress = _investorAddress;\n        trader = _trader;\n        traderAddress = _traderAddress;\n        currentState = state.paid;\n    }\n    function myAddr() public constant returns(address) {\n      return this;\n   }\n   modifier onlyBe() {\n    require(msg.sender == be);\n    _;\n  }\n   modifier inState(state s) {\n    require(currentState == s);\n    _;\n  }\n  function getState() public constant returns (uint)  {\n    return uint(currentState);\n  }\n  function getStart() public constant returns (uint)  {\n    return start;\n  }\n    function setVerified() public  onlyBe inState(state.paid) {\n        currentState = state.verified;\n   }\n\n    function setHalted() public  onlyBe {\n\n        require(currentState == state.paid || currentState == state.verified);\n        traderAddress.transfer(this.balance);\n        currentState = state.halted;\n   }\n    function setFinished(uint finishAmount) public  onlyBe inState(state.verified) {\n        if(finishAmount<=startBalance){\n          investorAddress.transfer(this.balance);\n        }else if(finishAmount>targetBalance){\n          traderAddress.transfer(this.balance);\n        }\n        else{\n          traderAddress.transfer(((finishAmount-startBalance)/(targetBalance-startBalance))*this.balance);\n          investorAddress.transfer(this.balance);\n        }\n        currentState = state.finished;\n   }\n   function () public payable {\n   }\n}\n",
  "sourcePath": "/root/repos/Contracts/contracts/MercatusInstance.sol",
  "compiler": {
    "name": "solc",
    "version": "0.4.18+commit.9cf6e910.Emscripten.clang"
  },
  "schemaVersion": "1.0.1",
  "updatedAt": "2018-01-28T23:20:28.296Z"
}