{
  "contractName": "MercatusInstance",
  "abi": [
    {
      "constant": true,
      "inputs": [],
      "name": "currentState",
      "outputs": [
        {
          "name": "",
          "type": "uint8"
        }
      ],
      "payable": false,
      "stateMutability": "view",
      "type": "function"
    },
    {
      "constant": true,
      "inputs": [],
      "name": "investorAddress",
      "outputs": [
        {
          "name": "",
          "type": "address"
        }
      ],
      "payable": false,
      "stateMutability": "view",
      "type": "function"
    },
    {
      "constant": true,
      "inputs": [],
      "name": "trader",
      "outputs": [
        {
          "name": "",
          "type": "string"
        }
      ],
      "payable": false,
      "stateMutability": "view",
      "type": "function"
    },
    {
      "constant": true,
      "inputs": [],
      "name": "getState",
      "outputs": [
        {
          "name": "",
          "type": "uint256"
        }
      ],
      "payable": false,
      "stateMutability": "view",
      "type": "function"
    },
    {
      "constant": true,
      "inputs": [],
      "name": "investor",
      "outputs": [
        {
          "name": "",
          "type": "string"
        }
      ],
      "payable": false,
      "stateMutability": "view",
      "type": "function"
    },
    {
      "constant": true,
      "inputs": [],
      "name": "traderAddress",
      "outputs": [
        {
          "name": "",
          "type": "address"
        }
      ],
      "payable": false,
      "stateMutability": "view",
      "type": "function"
    },
    {
      "constant": true,
      "inputs": [],
      "name": "deadline",
      "outputs": [
        {
          "name": "",
          "type": "uint256"
        }
      ],
      "payable": false,
      "stateMutability": "view",
      "type": "function"
    },
    {
      "constant": true,
      "inputs": [],
      "name": "targetBallance",
      "outputs": [
        {
          "name": "",
          "type": "uint256"
        }
      ],
      "payable": false,
      "stateMutability": "view",
      "type": "function"
    },
    {
      "constant": true,
      "inputs": [],
      "name": "be",
      "outputs": [
        {
          "name": "",
          "type": "address"
        }
      ],
      "payable": false,
      "stateMutability": "view",
      "type": "function"
    },
    {
      "constant": true,
      "inputs": [],
      "name": "maxLoss",
      "outputs": [
        {
          "name": "",
          "type": "uint256"
        }
      ],
      "payable": false,
      "stateMutability": "view",
      "type": "function"
    },
    {
      "constant": true,
      "inputs": [],
      "name": "startBallance",
      "outputs": [
        {
          "name": "",
          "type": "uint256"
        }
      ],
      "payable": false,
      "stateMutability": "view",
      "type": "function"
    },
    {
      "constant": false,
      "inputs": [
        {
          "name": "finishAmount",
          "type": "uint256"
        }
      ],
      "name": "setFinished",
      "outputs": [],
      "payable": false,
      "stateMutability": "nonpayable",
      "type": "function"
    },
    {
      "constant": false,
      "inputs": [],
      "name": "setHalted",
      "outputs": [
        {
          "name": "",
          "type": "uint8"
        }
      ],
      "payable": false,
      "stateMutability": "nonpayable",
      "type": "function"
    },
    {
      "constant": false,
      "inputs": [],
      "name": "setVerified",
      "outputs": [],
      "payable": false,
      "stateMutability": "nonpayable",
      "type": "function"
    },
    {
      "constant": true,
      "inputs": [],
      "name": "amount",
      "outputs": [
        {
          "name": "",
          "type": "uint256"
        }
      ],
      "payable": false,
      "stateMutability": "view",
      "type": "function"
    },
    {
      "constant": true,
      "inputs": [],
      "name": "start",
      "outputs": [
        {
          "name": "",
          "type": "uint256"
        }
      ],
      "payable": false,
      "stateMutability": "view",
      "type": "function"
    },
    {
      "constant": true,
      "inputs": [],
      "name": "getStart",
      "outputs": [
        {
          "name": "",
          "type": "uint256"
        }
      ],
      "payable": false,
      "stateMutability": "view",
      "type": "function"
    },
    {
      "constant": true,
      "inputs": [],
      "name": "currency",
      "outputs": [
        {
          "name": "",
          "type": "uint8"
        }
      ],
      "payable": false,
      "stateMutability": "view",
      "type": "function"
    },
    {
      "constant": true,
      "inputs": [],
      "name": "myAddr",
      "outputs": [
        {
          "name": "",
          "type": "address"
        }
      ],
      "payable": false,
      "stateMutability": "view",
      "type": "function"
    },
    {
      "inputs": [
        {
          "name": "duration",
          "type": "uint256"
        },
        {
          "name": "_maxLoss",
          "type": "uint256"
        },
        {
          "name": "_startBallance",
          "type": "uint256"
        },
        {
          "name": "_targetBallance",
          "type": "uint256"
        },
        {
          "name": "_amount",
          "type": "uint256"
        },
        {
          "name": "_investor",
          "type": "string"
        },
        {
          "name": "_investorAddress",
          "type": "address"
        },
        {
          "name": "_trader",
          "type": "string"
        },
        {
          "name": "_traderAddress",
          "type": "address"
        },
        {
          "name": "_currency",
          "type": "uint256"
        }
      ],
      "payable": true,
      "stateMutability": "payable",
      "type": "constructor"
    },
    {
      "payable": true,
      "stateMutability": "payable",
      "type": "fallback"
    }
  ],
  "bytecode": "0x60606040527310367bd202112f862d715d093c0b78e26becdc9c6000806101000a81548173ffffffffffffffffffffffffffffffffffffffff021916908373ffffffffffffffffffffffffffffffffffffffff16021790555060405162000ff438038062000ff48339810160405280805190602001909190805190602001909190805190602001909190805190602001909190805190602001909190805182019190602001805190602001909190805182019190602001805190602001909190805190602001909190505060008110158015620000dc5750600281105b1515620000e857600080fd5b42600181905550620151808a0260015401600281905550886003819055508760048190555086600581905550856006819055508060028111156200012857fe5b600760006101000a81548160ff021916908360028111156200014657fe5b021790555084600890805190602001906200016392919062000233565b5083600960006101000a81548173ffffffffffffffffffffffffffffffffffffffff021916908373ffffffffffffffffffffffffffffffffffffffff16021790555082600a9080519060200190620001bd92919062000233565b5081600b60006101000a81548173ffffffffffffffffffffffffffffffffffffffff021916908373ffffffffffffffffffffffffffffffffffffffff16021790555060008060146101000a81548160ff021916908360038111156200021e57fe5b021790555050505050505050505050620002e2565b828054600181600116156101000203166002900490600052602060002090601f016020900481019282601f106200027657805160ff1916838001178555620002a7565b82800160010185558215620002a7579182015b82811115620002a657825182559160200191906001019062000289565b5b509050620002b69190620002ba565b5090565b620002df91905b80821115620002db576000816000905550600101620002c1565b5090565b90565b610d0280620002f26000396000f300606060405260043610610107576000357c0100000000000000000000000000000000000000000000000000000000900463ffffffff1680630c3f6acf1461010957806312e228fd146101405780631758078b146101955780631865c57d146102235780631e0018d61461024c57806325411473146102da57806329dcb0cf1461032f5780632bffee851461035857806347ec8e21146103815780635783fe39146103d657806368a0af0e146103ff578063924498661461042857806396d437061461044b5780639e17f6ef14610482578063aa8c217c14610497578063be9a6555146104c0578063c5292c67146104e9578063e5a6b10f14610512578063e665b26614610549575b005b341561011457600080fd5b61011c61059e565b6040518082600381111561012c57fe5b60ff16815260200191505060405180910390f35b341561014b57600080fd5b6101536105b1565b604051808273ffffffffffffffffffffffffffffffffffffffff1673ffffffffffffffffffffffffffffffffffffffff16815260200191505060405180910390f35b34156101a057600080fd5b6101a86105d7565b6040518080602001828103825283818151815260200191508051906020019080838360005b838110156101e85780820151818401526020810190506101cd565b50505050905090810190601f1680156102155780820380516001836020036101000a031916815260200191505b509250505060405180910390f35b341561022e57600080fd5b610236610675565b6040518082815260200191505060405180910390f35b341561025757600080fd5b61025f610696565b6040518080602001828103825283818151815260200191508051906020019080838360005b8381101561029f578082015181840152602081019050610284565b50505050905090810190601f1680156102cc5780820380516001836020036101000a031916815260200191505b509250505060405180910390f35b34156102e557600080fd5b6102ed610734565b604051808273ffffffffffffffffffffffffffffffffffffffff1673ffffffffffffffffffffffffffffffffffffffff16815260200191505060405180910390f35b341561033a57600080fd5b61034261075a565b6040518082815260200191505060405180910390f35b341561036357600080fd5b61036b610760565b6040518082815260200191505060405180910390f35b341561038c57600080fd5b610394610766565b604051808273ffffffffffffffffffffffffffffffffffffffff1673ffffffffffffffffffffffffffffffffffffffff16815260200191505060405180910390f35b34156103e157600080fd5b6103e961078b565b6040518082815260200191505060405180910390f35b341561040a57600080fd5b610412610791565b6040518082815260200191505060405180910390f35b341561043357600080fd5b6104496004808035906020019091905050610797565b005b341561045657600080fd5b61045e610a7b565b6040518082600381111561046e57fe5b60ff16815260200191505060405180910390f35b341561048d57600080fd5b610495610bee565b005b34156104a257600080fd5b6104aa610ca5565b6040518082815260200191505060405180910390f35b34156104cb57600080fd5b6104d3610cab565b6040518082815260200191505060405180910390f35b34156104f457600080fd5b6104fc610cb1565b6040518082815260200191505060405180910390f35b341561051d57600080fd5b610525610cbb565b6040518082600281111561053557fe5b60ff16815260200191505060405180910390f35b341561055457600080fd5b61055c610cce565b604051808273ffffffffffffffffffffffffffffffffffffffff1673ffffffffffffffffffffffffffffffffffffffff16815260200191505060405180910390f35b600060149054906101000a900460ff1681565b600960009054906101000a900473ffffffffffffffffffffffffffffffffffffffff1681565b600a8054600181600116156101000203166002900480601f01602080910402602001604051908101604052809291908181526020018280546001816001161561010002031660029004801561066d5780601f106106425761010080835404028352916020019161066d565b820191906000526020600020905b81548152906001019060200180831161065057829003601f168201915b505050505081565b60008060149054906101000a900460ff16600381111561069157fe5b905090565b60088054600181600116156101000203166002900480601f01602080910402602001604051908101604052809291908181526020018280546001816001161561010002031660029004801561072c5780601f106107015761010080835404028352916020019161072c565b820191906000526020600020905b81548152906001019060200180831161070f57829003601f168201915b505050505081565b600b60009054906101000a900473ffffffffffffffffffffffffffffffffffffffff1681565b60025481565b60055481565b6000809054906101000a900473ffffffffffffffffffffffffffffffffffffffff1681565b60035481565b60045481565b6000809054906101000a900473ffffffffffffffffffffffffffffffffffffffff1673ffffffffffffffffffffffffffffffffffffffff163373ffffffffffffffffffffffffffffffffffffffff161415156107f257600080fd5b600180600381111561080057fe5b600060149054906101000a900460ff16600381111561081b57fe5b14151561082757600080fd5b6002544210151561083757600080fd5b600454821115156108c057600960009054906101000a900473ffffffffffffffffffffffffffffffffffffffff1673ffffffffffffffffffffffffffffffffffffffff166108fc3073ffffffffffffffffffffffffffffffffffffffff16319081150290604051600060405180830381858888f1935050505015156108bb57600080fd5b610a53565b60055482111561094857600b60009054906101000a900473ffffffffffffffffffffffffffffffffffffffff1673ffffffffffffffffffffffffffffffffffffffff166108fc3073ffffffffffffffffffffffffffffffffffffffff16319081150290604051600060405180830381858888f19350505050151561094357600080fd5b610a52565b600b60009054906101000a900473ffffffffffffffffffffffffffffffffffffffff1673ffffffffffffffffffffffffffffffffffffffff166108fc3073ffffffffffffffffffffffffffffffffffffffff16316004546005540360045486038115156109b157fe5b04029081150290604051600060405180830381858888f1935050505015156109d857600080fd5b600960009054906101000a900473ffffffffffffffffffffffffffffffffffffffff1673ffffffffffffffffffffffffffffffffffffffff166108fc3073ffffffffffffffffffffffffffffffffffffffff16319081150290604051600060405180830381858888f193505050501515610a5157600080fd5b5b5b6003600060146101000a81548160ff02191690836003811115610a7257fe5b02179055505050565b60008060009054906101000a900473ffffffffffffffffffffffffffffffffffffffff1673ffffffffffffffffffffffffffffffffffffffff163373ffffffffffffffffffffffffffffffffffffffff16141515610ad857600080fd5b60006003811115610ae557fe5b600060149054906101000a900460ff166003811115610b0057fe5b1480610b31575060016003811115610b1457fe5b600060149054906101000a900460ff166003811115610b2f57fe5b145b1515610b3c57600080fd5b600b60009054906101000a900473ffffffffffffffffffffffffffffffffffffffff1673ffffffffffffffffffffffffffffffffffffffff166108fc3073ffffffffffffffffffffffffffffffffffffffff16319081150290604051600060405180830381858888f193505050501515610bb557600080fd5b6002600060146101000a81548160ff02191690836003811115610bd457fe5b0217905550600060149054906101000a900460ff16905090565b6000809054906101000a900473ffffffffffffffffffffffffffffffffffffffff1673ffffffffffffffffffffffffffffffffffffffff163373ffffffffffffffffffffffffffffffffffffffff16141515610c4957600080fd5b6000806003811115610c5757fe5b600060149054906101000a900460ff166003811115610c7257fe5b141515610c7e57600080fd5b6001600060146101000a81548160ff02191690836003811115610c9d57fe5b021790555050565b60065481565b60015481565b6000600154905090565b600760009054906101000a900460ff1681565b6000309050905600a165627a7a723058200ffc7a6cb8807ab0967610a165ca14783d82556f910a1b0cd29134aca043d48f0029",
  "source": "pragma solidity ^0.4.15;\n\ncontract MercatusInstance {\n    address public be = 0x10367bD202112F862d715D093C0B78E26BEcdc9C;\n    enum state { paid, verified, halted, finished}\n    enum currencyType { USDT, BTC, ETH}\n    state public currentState;\n    uint256 public start;\n    uint256 public deadline;\n    uint256 public maxLoss;\n    uint256 public startBallance;\n    uint256 public targetBallance;\n    uint256 public amount;\n    currencyType public currency;\n    string public investor;\n    address public investorAddress;\n    string public trader;\n    address public traderAddress;\n    function MercatusInstance(uint duration, uint _maxLoss, uint _startBallance, uint _targetBallance, uint256 _amount,  string _investor, address _investorAddress, string _trader, address _traderAddress, uint _currency) payable{\n        require( _currency >= 0 &&  _currency < 2  );\n        start = now;\n        deadline = start + duration * 86400;\n        maxLoss = _maxLoss;\n        startBallance = _startBallance;\n        targetBallance = _targetBallance;\n        amount = _amount;\n        currency = currencyType(_currency);\n        investor = _investor;\n        investorAddress = _investorAddress;\n        trader = _trader;\n        traderAddress = _traderAddress;\n        currentState = state.paid;\n    }\n    function myAddr() public constant returns(address) {\n      return this;\n   }\n   modifier onlyBe() {\n    require(msg.sender == be);\n    _;\n  }\n   modifier inState(state s) {\n    require(currentState == s);\n    _;\n  }\n  function getState() public constant returns (uint)  {\n    return uint(currentState);\n  }\n  function getStart() public constant returns (uint256)  {\n    return start;\n  }\n    function setVerified() external  onlyBe inState(state.paid) {\n        currentState = state.verified;\n   }\n\n    function setHalted() external  onlyBe returns(state) {\n\n        require(currentState == state.paid || currentState == state.verified);\n        traderAddress.transfer(this.balance);\n        currentState = state.halted;\n      return currentState;\n   }\n    function setFinished(uint finishAmount) external  onlyBe inState(state.verified) {\n        require(now < deadline);\n        if(finishAmount<=startBallance){\n          investorAddress.transfer(this.balance);\n        }else if(finishAmount>targetBallance){\n          traderAddress.transfer(this.balance);\n        }\n        else{\n          traderAddress.transfer(((finishAmount-startBallance)/(targetBallance-startBallance))*this.balance);\n          investorAddress.transfer(this.balance);\n        }\n        currentState = state.finished;\n   }\n   function () public payable {\n   }\n}\n",
  "sourcePath": "/root/repos/Contracts/contracts/MercatusInstance.sol",
  "compiler": {
    "name": "solc",
    "version": "0.4.18+commit.9cf6e910.Emscripten.clang"
  },
  "schemaVersion": "1.0.1",
  "updatedAt": "2018-01-18T17:58:06.647Z"
}