{
  "contractName": "MercatusFactory",
  "abi": [
    {
      "constant": false,
      "inputs": [
        {
          "name": "_duration",
          "type": "uint256"
        },
        {
          "name": "_maxLoss",
          "type": "uint256"
        },
        {
          "name": "_startBallance",
          "type": "uint256"
        },
        {
          "name": "_targetBallance",
          "type": "uint256"
        },
        {
          "name": "_amount",
          "type": "uint256"
        },
        {
          "name": "_investor",
          "type": "string"
        },
        {
          "name": "_investorAddress",
          "type": "address"
        },
        {
          "name": "_trader",
          "type": "string"
        },
        {
          "name": "_traderAddress",
          "type": "address"
        },
        {
          "name": "offer",
          "type": "uint256"
        }
      ],
      "name": "makeInstance",
      "outputs": [
        {
          "name": "",
          "type": "address"
        }
      ],
      "payable": true,
      "stateMutability": "payable",
      "type": "function"
    },
    {
      "anonymous": false,
      "inputs": [
        {
          "indexed": true,
          "name": "from",
          "type": "address"
        },
        {
          "indexed": true,
          "name": "instance",
          "type": "address"
        },
        {
          "indexed": false,
          "name": "offer",
          "type": "uint256"
        }
      ],
      "name": "spawnInstance",
      "type": "event"
    }
  ],
  "bytecode": "0x6060604052341561000f57600080fd5b6113ae8061001e6000396000f300606060405260043610610041576000357c0100000000000000000000000000000000000000000000000000000000900463ffffffff168063f98c778d14610046575b600080fd5b61014d600480803590602001909190803590602001909190803590602001909190803590602001909190803590602001909190803590602001908201803590602001908080601f0160208091040260200160405190810160405280939291908181526020018383808284378201915050505050509190803573ffffffffffffffffffffffffffffffffffffffff1690602001909190803590602001908201803590602001908080601f0160208091040260200160405190810160405280939291908181526020018383808284378201915050505050509190803573ffffffffffffffffffffffffffffffffffffffff1690602001909190803590602001909190505061018f565b604051808273ffffffffffffffffffffffffffffffffffffffff1673ffffffffffffffffffffffffffffffffffffffff16815260200191505060405180910390f35b60008060008834101515156101a357600080fd5b8c8c8c8c8c8c8c8c8c6101b4610471565b808a8152602001898152602001888152602001878152602001868152602001806020018573ffffffffffffffffffffffffffffffffffffffff1673ffffffffffffffffffffffffffffffffffffffff168152602001806020018473ffffffffffffffffffffffffffffffffffffffff1673ffffffffffffffffffffffffffffffffffffffff168152602001838103835287818151815260200191508051906020019080838360005b8381101561027757808201518184015260208101905061025c565b50505050905090810190601f1680156102a45780820380516001836020036101000a031916815260200191505b50838103825285818151815260200191508051906020019080838360005b838110156102dd5780820151818401526020810190506102c2565b50505050905090810190601f16801561030a5780820380516001836020036101000a031916815260200191505b509b505050505050505050505050604051809103906000f080151561032e57600080fd5b91508173ffffffffffffffffffffffffffffffffffffffff1663e665b2666000604051602001526040518163ffffffff167c0100000000000000000000000000000000000000000000000000000000028152600401602060405180830381600087803b151561039c57600080fd5b6102c65a03f115156103ad57600080fd5b5050506040518051905090508073ffffffffffffffffffffffffffffffffffffffff163373ffffffffffffffffffffffffffffffffffffffff167f15b676eec5e6d49c5a355e2e487d39620fc003088fb987ea2f525c04904ef426866040518082815260200191505060405180910390a38073ffffffffffffffffffffffffffffffffffffffff166108fc349081150290604051600060405180830381858888f19350505050151561045e57600080fd5b80925050509a9950505050505050505050565b604051610f018061048283390190560060606040527310367bd202112f862d715d093c0b78e26becdc9c6000806101000a81548173ffffffffffffffffffffffffffffffffffffffff021916908373ffffffffffffffffffffffffffffffffffffffff160217905550341561006357600080fd5b604051610f01380380610f018339810160405280805190602001909190805190602001909190805190602001909190805190602001909190805190602001909190805182019190602001805190602001909190805182019190602001805190602001909190505042600181905550620151808902600154016002819055508760038190555086600481905550856005819055508460068190555083600790805190602001906101139291906101de565b5082600860006101000a81548173ffffffffffffffffffffffffffffffffffffffff021916908373ffffffffffffffffffffffffffffffffffffffff160217905550816009908051906020019061016b9291906101de565b5080600a60006101000a81548173ffffffffffffffffffffffffffffffffffffffff021916908373ffffffffffffffffffffffffffffffffffffffff16021790555060008060146101000a81548160ff021916908360038111156101cb57fe5b0217905550505050505050505050610283565b828054600181600116156101000203166002900490600052602060002090601f016020900481019282601f1061021f57805160ff191683800117855561024d565b8280016001018555821561024d579182015b8281111561024c578251825591602001919060010190610231565b5b50905061025a919061025e565b5090565b61028091905b8082111561027c576000816000905550600101610264565b5090565b90565b610c6f806102926000396000f3006060604052600436106100f1576000357c0100000000000000000000000000000000000000000000000000000000900463ffffffff1680630c3f6acf146100f357806312e228fd1461012a5780631758078b1461017f5780631865c57d1461020d5780631e0018d61461023657806325411473146102c457806329dcb0cf146103195780632bffee851461034257806347ec8e211461036b5780635783fe39146103c057806368a0af0e146103e9578063924498661461041257806396d43706146104355780639e17f6ef1461046c578063aa8c217c14610481578063be9a6555146104aa578063e665b266146104d3575b005b34156100fe57600080fd5b610106610528565b6040518082600381111561011657fe5b60ff16815260200191505060405180910390f35b341561013557600080fd5b61013d61053b565b604051808273ffffffffffffffffffffffffffffffffffffffff1673ffffffffffffffffffffffffffffffffffffffff16815260200191505060405180910390f35b341561018a57600080fd5b610192610561565b6040518080602001828103825283818151815260200191508051906020019080838360005b838110156101d25780820151818401526020810190506101b7565b50505050905090810190601f1680156101ff5780820380516001836020036101000a031916815260200191505b509250505060405180910390f35b341561021857600080fd5b6102206105ff565b6040518082815260200191505060405180910390f35b341561024157600080fd5b610249610620565b6040518080602001828103825283818151815260200191508051906020019080838360005b8381101561028957808201518184015260208101905061026e565b50505050905090810190601f1680156102b65780820380516001836020036101000a031916815260200191505b509250505060405180910390f35b34156102cf57600080fd5b6102d76106be565b604051808273ffffffffffffffffffffffffffffffffffffffff1673ffffffffffffffffffffffffffffffffffffffff16815260200191505060405180910390f35b341561032457600080fd5b61032c6106e4565b6040518082815260200191505060405180910390f35b341561034d57600080fd5b6103556106ea565b6040518082815260200191505060405180910390f35b341561037657600080fd5b61037e6106f0565b604051808273ffffffffffffffffffffffffffffffffffffffff1673ffffffffffffffffffffffffffffffffffffffff16815260200191505060405180910390f35b34156103cb57600080fd5b6103d3610715565b6040518082815260200191505060405180910390f35b34156103f457600080fd5b6103fc61071b565b6040518082815260200191505060405180910390f35b341561041d57600080fd5b6104336004808035906020019091905050610721565b005b341561044057600080fd5b610448610a05565b6040518082600381111561045857fe5b60ff16815260200191505060405180910390f35b341561047757600080fd5b61047f610b78565b005b341561048c57600080fd5b610494610c2f565b6040518082815260200191505060405180910390f35b34156104b557600080fd5b6104bd610c35565b6040518082815260200191505060405180910390f35b34156104de57600080fd5b6104e6610c3b565b604051808273ffffffffffffffffffffffffffffffffffffffff1673ffffffffffffffffffffffffffffffffffffffff16815260200191505060405180910390f35b600060149054906101000a900460ff1681565b600860009054906101000a900473ffffffffffffffffffffffffffffffffffffffff1681565b60098054600181600116156101000203166002900480601f0160208091040260200160405190810160405280929190818152602001828054600181600116156101000203166002900480156105f75780601f106105cc576101008083540402835291602001916105f7565b820191906000526020600020905b8154815290600101906020018083116105da57829003601f168201915b505050505081565b60008060149054906101000a900460ff16600381111561061b57fe5b905090565b60078054600181600116156101000203166002900480601f0160208091040260200160405190810160405280929190818152602001828054600181600116156101000203166002900480156106b65780601f1061068b576101008083540402835291602001916106b6565b820191906000526020600020905b81548152906001019060200180831161069957829003601f168201915b505050505081565b600a60009054906101000a900473ffffffffffffffffffffffffffffffffffffffff1681565b60025481565b60055481565b6000809054906101000a900473ffffffffffffffffffffffffffffffffffffffff1681565b60035481565b60045481565b6000809054906101000a900473ffffffffffffffffffffffffffffffffffffffff1673ffffffffffffffffffffffffffffffffffffffff163373ffffffffffffffffffffffffffffffffffffffff1614151561077c57600080fd5b600180600381111561078a57fe5b600060149054906101000a900460ff1660038111156107a557fe5b1415156107b157600080fd5b600254421015156107c157600080fd5b6004548211151561084a57600860009054906101000a900473ffffffffffffffffffffffffffffffffffffffff1673ffffffffffffffffffffffffffffffffffffffff166108fc3073ffffffffffffffffffffffffffffffffffffffff16319081150290604051600060405180830381858888f19350505050151561084557600080fd5b6109dd565b6005548211156108d257600a60009054906101000a900473ffffffffffffffffffffffffffffffffffffffff1673ffffffffffffffffffffffffffffffffffffffff166108fc3073ffffffffffffffffffffffffffffffffffffffff16319081150290604051600060405180830381858888f1935050505015156108cd57600080fd5b6109dc565b600a60009054906101000a900473ffffffffffffffffffffffffffffffffffffffff1673ffffffffffffffffffffffffffffffffffffffff166108fc3073ffffffffffffffffffffffffffffffffffffffff163160045460055403600454860381151561093b57fe5b04029081150290604051600060405180830381858888f19350505050151561096257600080fd5b600860009054906101000a900473ffffffffffffffffffffffffffffffffffffffff1673ffffffffffffffffffffffffffffffffffffffff166108fc3073ffffffffffffffffffffffffffffffffffffffff16319081150290604051600060405180830381858888f1935050505015156109db57600080fd5b5b5b6003600060146101000a81548160ff021916908360038111156109fc57fe5b02179055505050565b60008060009054906101000a900473ffffffffffffffffffffffffffffffffffffffff1673ffffffffffffffffffffffffffffffffffffffff163373ffffffffffffffffffffffffffffffffffffffff16141515610a6257600080fd5b60006003811115610a6f57fe5b600060149054906101000a900460ff166003811115610a8a57fe5b1480610abb575060016003811115610a9e57fe5b600060149054906101000a900460ff166003811115610ab957fe5b145b1515610ac657600080fd5b600a60009054906101000a900473ffffffffffffffffffffffffffffffffffffffff1673ffffffffffffffffffffffffffffffffffffffff166108fc3073ffffffffffffffffffffffffffffffffffffffff16319081150290604051600060405180830381858888f193505050501515610b3f57600080fd5b6002600060146101000a81548160ff02191690836003811115610b5e57fe5b0217905550600060149054906101000a900460ff16905090565b6000809054906101000a900473ffffffffffffffffffffffffffffffffffffffff1673ffffffffffffffffffffffffffffffffffffffff163373ffffffffffffffffffffffffffffffffffffffff16141515610bd357600080fd5b6000806003811115610be157fe5b600060149054906101000a900460ff166003811115610bfc57fe5b141515610c0857600080fd5b6001600060146101000a81548160ff02191690836003811115610c2757fe5b021790555050565b60065481565b60015481565b6000309050905600a165627a7a72305820f98e2403fb315276e6f495b41c9b6291daa8fb2714f86f6fa02475c95ea7ed490029a165627a7a72305820cb685c4e428f56f0e81d08e656ad7e6c0c43d2c3a412aabf033eb316f73d30620029",
  "source": "pragma solidity ^0.4.15;\n\nimport './MercatusInstance.sol';\ncontract MercatusFactory {\n    function makeInstance(uint _duration, uint256 _maxLoss, uint256 _startBallance, uint256 _targetBallance, uint256 _amount,  string _investor, address _investorAddress, string _trader, address _traderAddress, uint256 offer)\n    payable\n    returns (address){\n      require(msg.value >= _amount);\n        MercatusInstance mI =  (new MercatusInstance(_duration, _maxLoss, _startBallance, _targetBallance, _amount , _investor, _investorAddress, _trader, _traderAddress));\n        address instanceAddr = mI.myAddr();\n        spawnInstance(msg.sender,instanceAddr,offer);\n        instanceAddr.transfer(msg.value);\n        return instanceAddr;\n    }\n    event spawnInstance(address indexed from, address indexed instance, uint256 offer);\n}\n",
  "sourcePath": "/home/dev/repos/mercatusBlockchain/contracts/MercatusFactory.sol",
  "compiler": {
    "name": "solc",
    "version": "0.4.18+commit.9cf6e910.Emscripten.clang"
  },
  "schemaVersion": "1.0.1",
  "updatedAt": "2017-11-16T14:25:35.679Z"
}