{
  "contractName": "MercatusFactory",
  "abi": [
    {
      "constant": false,
      "inputs": [
        {
          "name": "_duration",
          "type": "uint256"
        },
        {
          "name": "_maxLoss",
          "type": "uint256"
        },
        {
          "name": "_startBallance",
          "type": "uint256"
        },
        {
          "name": "_targetBallance",
          "type": "uint256"
        },
        {
          "name": "_amount",
          "type": "uint256"
        },
        {
          "name": "_investor",
          "type": "string"
        },
        {
          "name": "_investorAddress",
          "type": "address"
        },
        {
          "name": "_trader",
          "type": "string"
        },
        {
          "name": "_traderAddress",
          "type": "address"
        },
        {
          "name": "offer",
          "type": "uint256"
        },
        {
          "name": "_currency",
          "type": "uint256"
        }
      ],
      "name": "makeInstance",
      "outputs": [],
      "payable": true,
      "stateMutability": "payable",
      "type": "function"
    },
    {
      "anonymous": false,
      "inputs": [
        {
          "indexed": true,
          "name": "from",
          "type": "address"
        },
        {
          "indexed": true,
          "name": "instance",
          "type": "address"
        },
        {
          "indexed": false,
          "name": "start",
          "type": "uint256"
        },
        {
          "indexed": false,
          "name": "offer",
          "type": "uint256"
        }
      ],
      "name": "spawnInstance",
      "type": "event"
    }
  ],
  "bytecode": "0x6060604052341561000f57600080fd5b6114fa8061001e6000396000f300606060405260043610610041576000357c0100000000000000000000000000000000000000000000000000000000900463ffffffff1680631ec2166f14610046575b600080fd5b610156600480803590602001909190803590602001909190803590602001909190803590602001909190803590602001909190803590602001908201803590602001908080601f0160208091040260200160405190810160405280939291908181526020018383808284378201915050505050509190803573ffffffffffffffffffffffffffffffffffffffff1690602001909190803590602001908201803590602001908080601f0160208091040260200160405190810160405280939291908181526020018383808284378201915050505050509190803573ffffffffffffffffffffffffffffffffffffffff16906020019091908035906020019091908035906020019091905050610158565b005b60008088341015151561016a57600080fd5b8c8c8c8c8c8c8c8c8c8b61017c6104ca565b808b81526020018a8152602001898152602001888152602001878152602001806020018673ffffffffffffffffffffffffffffffffffffffff1673ffffffffffffffffffffffffffffffffffffffff168152602001806020018573ffffffffffffffffffffffffffffffffffffffff1673ffffffffffffffffffffffffffffffffffffffff168152602001848152602001838103835288818151815260200191508051906020019080838360005b8381101561024557808201518184015260208101905061022a565b50505050905090810190601f1680156102725780820380516001836020036101000a031916815260200191505b50838103825286818151815260200191508051906020019080838360005b838110156102ab578082015181840152602081019050610290565b50505050905090810190601f1680156102d85780820380516001836020036101000a031916815260200191505b509c50505050505050505050505050604051809103906000f08015156102fd57600080fd5b91508173ffffffffffffffffffffffffffffffffffffffff1663e665b2666000604051602001526040518163ffffffff167c0100000000000000000000000000000000000000000000000000000000028152600401602060405180830381600087803b151561036b57600080fd5b6102c65a03f1151561037c57600080fd5b5050506040518051905090508073ffffffffffffffffffffffffffffffffffffffff163373ffffffffffffffffffffffffffffffffffffffff167f4bf9408ddb8d1c22feedc926cad147d954eb25a315bf6a7c3e98144ca1882ad38473ffffffffffffffffffffffffffffffffffffffff1663c5292c676000604051602001526040518163ffffffff167c0100000000000000000000000000000000000000000000000000000000028152600401602060405180830381600087803b151561044357600080fd5b6102c65a03f1151561045457600080fd5b5050506040518051905087604051808381526020018281526020019250505060405180910390a38073ffffffffffffffffffffffffffffffffffffffff166108fc349081150290604051600060405180830381858888f1935050505015156104bb57600080fd5b50505050505050505050505050565b604051610ff4806104db83390190560060606040527310367bd202112f862d715d093c0b78e26becdc9c6000806101000a81548173ffffffffffffffffffffffffffffffffffffffff021916908373ffffffffffffffffffffffffffffffffffffffff16021790555060405162000ff438038062000ff48339810160405280805190602001909190805190602001909190805190602001909190805190602001909190805190602001909190805182019190602001805190602001909190805182019190602001805190602001909190805190602001909190505060008110158015620000dc5750600281105b1515620000e857600080fd5b42600181905550620151808a0260015401600281905550886003819055508760048190555086600581905550856006819055508060028111156200012857fe5b600760006101000a81548160ff021916908360028111156200014657fe5b021790555084600890805190602001906200016392919062000233565b5083600960006101000a81548173ffffffffffffffffffffffffffffffffffffffff021916908373ffffffffffffffffffffffffffffffffffffffff16021790555082600a9080519060200190620001bd92919062000233565b5081600b60006101000a81548173ffffffffffffffffffffffffffffffffffffffff021916908373ffffffffffffffffffffffffffffffffffffffff16021790555060008060146101000a81548160ff021916908360038111156200021e57fe5b021790555050505050505050505050620002e2565b828054600181600116156101000203166002900490600052602060002090601f016020900481019282601f106200027657805160ff1916838001178555620002a7565b82800160010185558215620002a7579182015b82811115620002a657825182559160200191906001019062000289565b5b509050620002b69190620002ba565b5090565b620002df91905b80821115620002db576000816000905550600101620002c1565b5090565b90565b610d0280620002f26000396000f300606060405260043610610107576000357c0100000000000000000000000000000000000000000000000000000000900463ffffffff1680630c3f6acf1461010957806312e228fd146101405780631758078b146101955780631865c57d146102235780631e0018d61461024c57806325411473146102da57806329dcb0cf1461032f5780632bffee851461035857806347ec8e21146103815780635783fe39146103d657806368a0af0e146103ff578063924498661461042857806396d437061461044b5780639e17f6ef14610482578063aa8c217c14610497578063be9a6555146104c0578063c5292c67146104e9578063e5a6b10f14610512578063e665b26614610549575b005b341561011457600080fd5b61011c61059e565b6040518082600381111561012c57fe5b60ff16815260200191505060405180910390f35b341561014b57600080fd5b6101536105b1565b604051808273ffffffffffffffffffffffffffffffffffffffff1673ffffffffffffffffffffffffffffffffffffffff16815260200191505060405180910390f35b34156101a057600080fd5b6101a86105d7565b6040518080602001828103825283818151815260200191508051906020019080838360005b838110156101e85780820151818401526020810190506101cd565b50505050905090810190601f1680156102155780820380516001836020036101000a031916815260200191505b509250505060405180910390f35b341561022e57600080fd5b610236610675565b6040518082815260200191505060405180910390f35b341561025757600080fd5b61025f610696565b6040518080602001828103825283818151815260200191508051906020019080838360005b8381101561029f578082015181840152602081019050610284565b50505050905090810190601f1680156102cc5780820380516001836020036101000a031916815260200191505b509250505060405180910390f35b34156102e557600080fd5b6102ed610734565b604051808273ffffffffffffffffffffffffffffffffffffffff1673ffffffffffffffffffffffffffffffffffffffff16815260200191505060405180910390f35b341561033a57600080fd5b61034261075a565b6040518082815260200191505060405180910390f35b341561036357600080fd5b61036b610760565b6040518082815260200191505060405180910390f35b341561038c57600080fd5b610394610766565b604051808273ffffffffffffffffffffffffffffffffffffffff1673ffffffffffffffffffffffffffffffffffffffff16815260200191505060405180910390f35b34156103e157600080fd5b6103e961078b565b6040518082815260200191505060405180910390f35b341561040a57600080fd5b610412610791565b6040518082815260200191505060405180910390f35b341561043357600080fd5b6104496004808035906020019091905050610797565b005b341561045657600080fd5b61045e610a7b565b6040518082600381111561046e57fe5b60ff16815260200191505060405180910390f35b341561048d57600080fd5b610495610bee565b005b34156104a257600080fd5b6104aa610ca5565b6040518082815260200191505060405180910390f35b34156104cb57600080fd5b6104d3610cab565b6040518082815260200191505060405180910390f35b34156104f457600080fd5b6104fc610cb1565b6040518082815260200191505060405180910390f35b341561051d57600080fd5b610525610cbb565b6040518082600281111561053557fe5b60ff16815260200191505060405180910390f35b341561055457600080fd5b61055c610cce565b604051808273ffffffffffffffffffffffffffffffffffffffff1673ffffffffffffffffffffffffffffffffffffffff16815260200191505060405180910390f35b600060149054906101000a900460ff1681565b600960009054906101000a900473ffffffffffffffffffffffffffffffffffffffff1681565b600a8054600181600116156101000203166002900480601f01602080910402602001604051908101604052809291908181526020018280546001816001161561010002031660029004801561066d5780601f106106425761010080835404028352916020019161066d565b820191906000526020600020905b81548152906001019060200180831161065057829003601f168201915b505050505081565b60008060149054906101000a900460ff16600381111561069157fe5b905090565b60088054600181600116156101000203166002900480601f01602080910402602001604051908101604052809291908181526020018280546001816001161561010002031660029004801561072c5780601f106107015761010080835404028352916020019161072c565b820191906000526020600020905b81548152906001019060200180831161070f57829003601f168201915b505050505081565b600b60009054906101000a900473ffffffffffffffffffffffffffffffffffffffff1681565b60025481565b60055481565b6000809054906101000a900473ffffffffffffffffffffffffffffffffffffffff1681565b60035481565b60045481565b6000809054906101000a900473ffffffffffffffffffffffffffffffffffffffff1673ffffffffffffffffffffffffffffffffffffffff163373ffffffffffffffffffffffffffffffffffffffff161415156107f257600080fd5b600180600381111561080057fe5b600060149054906101000a900460ff16600381111561081b57fe5b14151561082757600080fd5b6002544210151561083757600080fd5b600454821115156108c057600960009054906101000a900473ffffffffffffffffffffffffffffffffffffffff1673ffffffffffffffffffffffffffffffffffffffff166108fc3073ffffffffffffffffffffffffffffffffffffffff16319081150290604051600060405180830381858888f1935050505015156108bb57600080fd5b610a53565b60055482111561094857600b60009054906101000a900473ffffffffffffffffffffffffffffffffffffffff1673ffffffffffffffffffffffffffffffffffffffff166108fc3073ffffffffffffffffffffffffffffffffffffffff16319081150290604051600060405180830381858888f19350505050151561094357600080fd5b610a52565b600b60009054906101000a900473ffffffffffffffffffffffffffffffffffffffff1673ffffffffffffffffffffffffffffffffffffffff166108fc3073ffffffffffffffffffffffffffffffffffffffff16316004546005540360045486038115156109b157fe5b04029081150290604051600060405180830381858888f1935050505015156109d857600080fd5b600960009054906101000a900473ffffffffffffffffffffffffffffffffffffffff1673ffffffffffffffffffffffffffffffffffffffff166108fc3073ffffffffffffffffffffffffffffffffffffffff16319081150290604051600060405180830381858888f193505050501515610a5157600080fd5b5b5b6003600060146101000a81548160ff02191690836003811115610a7257fe5b02179055505050565b60008060009054906101000a900473ffffffffffffffffffffffffffffffffffffffff1673ffffffffffffffffffffffffffffffffffffffff163373ffffffffffffffffffffffffffffffffffffffff16141515610ad857600080fd5b60006003811115610ae557fe5b600060149054906101000a900460ff166003811115610b0057fe5b1480610b31575060016003811115610b1457fe5b600060149054906101000a900460ff166003811115610b2f57fe5b145b1515610b3c57600080fd5b600b60009054906101000a900473ffffffffffffffffffffffffffffffffffffffff1673ffffffffffffffffffffffffffffffffffffffff166108fc3073ffffffffffffffffffffffffffffffffffffffff16319081150290604051600060405180830381858888f193505050501515610bb557600080fd5b6002600060146101000a81548160ff02191690836003811115610bd457fe5b0217905550600060149054906101000a900460ff16905090565b6000809054906101000a900473ffffffffffffffffffffffffffffffffffffffff1673ffffffffffffffffffffffffffffffffffffffff163373ffffffffffffffffffffffffffffffffffffffff16141515610c4957600080fd5b6000806003811115610c5757fe5b600060149054906101000a900460ff166003811115610c7257fe5b141515610c7e57600080fd5b6001600060146101000a81548160ff02191690836003811115610c9d57fe5b021790555050565b60065481565b60015481565b6000600154905090565b600760009054906101000a900460ff1681565b6000309050905600a165627a7a723058200ffc7a6cb8807ab0967610a165ca14783d82556f910a1b0cd29134aca043d48f0029a165627a7a72305820c32e976c67e819e7815ed8c3dea23e77f01896224e2d8f0ef22428f143bed99d0029",
  "source": "pragma solidity ^0.4.15;\n\nimport './MercatusInstance.sol';\ncontract MercatusFactory {\n    function makeInstance(uint _duration, uint256 _maxLoss, uint256 _startBallance, uint256 _targetBallance, uint256 _amount,  string _investor, address _investorAddress, string _trader, address _traderAddress, uint256 offer, uint _currency)\n    payable public {\n      require(msg.value >= _amount);\n        MercatusInstance mI =  (new MercatusInstance(_duration, _maxLoss, _startBallance, _targetBallance, _amount , _investor, _investorAddress, _trader, _traderAddress, _currency));\n        address instanceAddr = mI.myAddr();\n        spawnInstance(msg.sender,instanceAddr, mI.getStart(), offer);\n        instanceAddr.transfer(msg.value);\n    }\n    event spawnInstance(address indexed from, address indexed instance, uint256 start, uint256 offer);\n}\n",
  "sourcePath": "/root/repos/Contracts/contracts/MercatusFactory.sol",
  "compiler": {
    "name": "solc",
    "version": "0.4.18+commit.9cf6e910.Emscripten.clang"
  },
  "schemaVersion": "1.0.1",
  "updatedAt": "2018-01-18T17:58:06.642Z"
}