{
  "contractName": "MercatusDeals",
  "abi": [
    {
      "constant": true,
      "inputs": [
        {
          "name": "",
          "type": "uint256"
        }
      ],
      "name": "deals",
      "outputs": [
        {
          "name": "currentState",
          "type": "uint8"
        },
        {
          "name": "start",
          "type": "uint256"
        },
        {
          "name": "deadline",
          "type": "uint256"
        },
        {
          "name": "maxLoss",
          "type": "uint256"
        },
        {
          "name": "startBalance",
          "type": "uint256"
        },
        {
          "name": "targetBalance",
          "type": "uint256"
        },
        {
          "name": "amount",
          "type": "uint256"
        },
        {
          "name": "currency",
          "type": "uint8"
        },
        {
          "name": "investor",
          "type": "string"
        },
        {
          "name": "investorAddress",
          "type": "address"
        },
        {
          "name": "trader",
          "type": "string"
        },
        {
          "name": "traderAddress",
          "type": "address"
        }
      ],
      "payable": false,
      "stateMutability": "view",
      "type": "function"
    },
    {
      "constant": false,
      "inputs": [
        {
          "name": "dealId",
          "type": "uint256"
        }
      ],
      "name": "setHalted",
      "outputs": [],
      "payable": false,
      "stateMutability": "nonpayable",
      "type": "function"
    },
    {
      "constant": false,
      "inputs": [
        {
          "name": "dealId",
          "type": "uint256"
        }
      ],
      "name": "setVerified",
      "outputs": [],
      "payable": false,
      "stateMutability": "nonpayable",
      "type": "function"
    },
    {
      "constant": true,
      "inputs": [
        {
          "name": "dealId",
          "type": "uint256"
        }
      ],
      "name": "getState",
      "outputs": [
        {
          "name": "",
          "type": "uint256"
        }
      ],
      "payable": false,
      "stateMutability": "view",
      "type": "function"
    },
    {
      "constant": false,
      "inputs": [
        {
          "name": "dealId",
          "type": "uint256"
        },
        {
          "name": "finishAmount",
          "type": "uint256"
        }
      ],
      "name": "setFinished",
      "outputs": [],
      "payable": false,
      "stateMutability": "nonpayable",
      "type": "function"
    },
    {
      "constant": true,
      "inputs": [],
      "name": "be",
      "outputs": [
        {
          "name": "",
          "type": "address"
        }
      ],
      "payable": false,
      "stateMutability": "view",
      "type": "function"
    },
    {
      "constant": true,
      "inputs": [],
      "name": "getDealsCount",
      "outputs": [
        {
          "name": "",
          "type": "uint256"
        }
      ],
      "payable": false,
      "stateMutability": "view",
      "type": "function"
    },
    {
      "constant": true,
      "inputs": [
        {
          "name": "dealId",
          "type": "uint256"
        }
      ],
      "name": "getStart",
      "outputs": [
        {
          "name": "",
          "type": "uint256"
        }
      ],
      "payable": false,
      "stateMutability": "view",
      "type": "function"
    },
    {
      "constant": false,
      "inputs": [
        {
          "name": "_duration",
          "type": "uint256"
        },
        {
          "name": "_maxLoss",
          "type": "uint256"
        },
        {
          "name": "_startBalance",
          "type": "uint256"
        },
        {
          "name": "_targetBalance",
          "type": "uint256"
        },
        {
          "name": "_amount",
          "type": "uint256"
        },
        {
          "name": "_investor",
          "type": "string"
        },
        {
          "name": "_investorAddress",
          "type": "address"
        },
        {
          "name": "_trader",
          "type": "string"
        },
        {
          "name": "_traderAddress",
          "type": "address"
        },
        {
          "name": "offer",
          "type": "uint256"
        },
        {
          "name": "_currency",
          "type": "uint256"
        }
      ],
      "name": "makeDeal",
      "outputs": [],
      "payable": true,
      "stateMutability": "payable",
      "type": "function"
    },
    {
      "inputs": [],
      "payable": true,
      "stateMutability": "payable",
      "type": "constructor"
    },
    {
      "payable": true,
      "stateMutability": "payable",
      "type": "fallback"
    },
    {
      "anonymous": false,
      "inputs": [
        {
          "indexed": true,
          "name": "from",
          "type": "address"
        },
        {
          "indexed": true,
          "name": "dealId",
          "type": "uint256"
        },
        {
          "indexed": false,
          "name": "start",
          "type": "uint256"
        },
        {
          "indexed": false,
          "name": "offer",
          "type": "uint256"
        }
      ],
      "name": "spawnInstance",
      "type": "event"
    }
  ],
  "bytecode": "0x60606040527310367bd202112f862d715d093c0b78e26becdc9c600160006101000a81548173ffffffffffffffffffffffffffffffffffffffff021916908373ffffffffffffffffffffffffffffffffffffffff160217905550611384806100686000396000f300606060405260043610610099576000357c0100000000000000000000000000000000000000000000000000000000900463ffffffff16806303988f841461009b5780630af4cd61146102975780632d9de472146102ba57806344c9af28146102dd5780634580cc5e1461031457806347ec8e2114610340578063594de857146103955780635bc22d1b146103be578063c0eaded2146103f5575b005b34156100a657600080fd5b6100bc6004808035906020019091905050610507565b604051808d60038111156100cc57fe5b60ff1681526020018c81526020018b81526020018a815260200189815260200188815260200187815260200186600281111561010457fe5b60ff168152602001806020018573ffffffffffffffffffffffffffffffffffffffff1673ffffffffffffffffffffffffffffffffffffffff168152602001806020018473ffffffffffffffffffffffffffffffffffffffff1673ffffffffffffffffffffffffffffffffffffffff1681526020018381038352878181546001816001161561010002031660029004815260200191508054600181600116156101000203166002900480156101f95780601f106101ce576101008083540402835291602001916101f9565b820191906000526020600020905b8154815290600101906020018083116101dc57829003601f168201915b505083810382528581815460018160011615610100020316600290048152602001915080546001816001161561010002031660029004801561027c5780601f106102515761010080835404028352916020019161027c565b820191906000526020600020905b81548152906001019060200180831161025f57829003601f168201915b50509e50505050505050505050505050505060405180910390f35b34156102a257600080fd5b6102b860048080359060200190919050506105ce565b005b34156102c557600080fd5b6102db60048080359060200190919050506107ae565b005b34156102e857600080fd5b6102fe60048080359060200190919050506108a5565b6040518082815260200191505060405180910390f35b341561031f57600080fd5b61033e60048080359060200190919080359060200190919050506108e7565b005b341561034b57600080fd5b610353610e05565b604051808273ffffffffffffffffffffffffffffffffffffffff1673ffffffffffffffffffffffffffffffffffffffff16815260200191505060405180910390f35b34156103a057600080fd5b6103a8610e2b565b6040518082815260200191505060405180910390f35b34156103c957600080fd5b6103df6004808035906020019091905050610e38565b6040518082815260200191505060405180910390f35b610505600480803590602001909190803590602001909190803590602001909190803590602001909190803590602001909190803590602001908201803590602001908080601f0160208091040260200160405190810160405280939291908181526020018383808284378201915050505050509190803573ffffffffffffffffffffffffffffffffffffffff1690602001909190803590602001908201803590602001908080601f0160208091040260200160405190810160405280939291908181526020018383808284378201915050505050509190803573ffffffffffffffffffffffffffffffffffffffff16906020019091908035906020019091908035906020019091905050610e62565b005b60028181548110151561051657fe5b90600052602060002090600c02016000915090508060000160009054906101000a900460ff16908060010154908060020154908060030154908060040154908060050154908060060154908060070160009054906101000a900460ff169080600801908060090160009054906101000a900473ffffffffffffffffffffffffffffffffffffffff169080600a019080600b0160009054906101000a900473ffffffffffffffffffffffffffffffffffffffff1690508c565b600160009054906101000a900473ffffffffffffffffffffffffffffffffffffffff1673ffffffffffffffffffffffffffffffffffffffff163373ffffffffffffffffffffffffffffffffffffffff1614151561062a57600080fd5b6000600381111561063757fe5b60028281548110151561064657fe5b90600052602060002090600c020160000160009054906101000a900460ff16600381111561067057fe5b14806106bf57506001600381111561068457fe5b60028281548110151561069357fe5b90600052602060002090600c020160000160009054906101000a900460ff1660038111156106bd57fe5b145b15156106ca57600080fd5b6002818154811015156106d957fe5b90600052602060002090600c0201600b0160009054906101000a900473ffffffffffffffffffffffffffffffffffffffff1673ffffffffffffffffffffffffffffffffffffffff166108fc60028381548110151561073357fe5b90600052602060002090600c0201600601549081150290604051600060405180830381858888f19350505050151561076a57600080fd5b6002808281548110151561077a57fe5b90600052602060002090600c020160000160006101000a81548160ff021916908360038111156107a657fe5b021790555050565b600160009054906101000a900473ffffffffffffffffffffffffffffffffffffffff1673ffffffffffffffffffffffffffffffffffffffff163373ffffffffffffffffffffffffffffffffffffffff1614151561080a57600080fd5b80600080600381111561081957fe5b60028381548110151561082857fe5b90600052602060002090600c020160000160009054906101000a900460ff16600381111561085257fe5b14151561085e57600080fd5b600160028481548110151561086f57fe5b90600052602060002090600c020160000160006101000a81548160ff0219169083600381111561089b57fe5b0217905550505050565b60006002828154811015156108b657fe5b90600052602060002090600c020160000160009054906101000a900460ff1660038111156108e057fe5b9050919050565b600160009054906101000a900473ffffffffffffffffffffffffffffffffffffffff1673ffffffffffffffffffffffffffffffffffffffff163373ffffffffffffffffffffffffffffffffffffffff1614151561094357600080fd5b81600180600381111561095257fe5b60028381548110151561096157fe5b90600052602060002090600c020160000160009054906101000a900460ff16600381111561098b57fe5b14151561099757600080fd5b6002848154811015156109a657fe5b90600052602060002090600c02016004015483111515610a65576002848154811015156109cf57fe5b90600052602060002090600c020160090160009054906101000a900473ffffffffffffffffffffffffffffffffffffffff1673ffffffffffffffffffffffffffffffffffffffff166108fc600286815481101515610a2957fe5b90600052602060002090600c0201600601549081150290604051600060405180830381858888f193505050501515610a6057600080fd5b610dbd565b600284815481101515610a7457fe5b90600052602060002090600c020160050154831115610b3257600284815481101515610a9c57fe5b90600052602060002090600c0201600b0160009054906101000a900473ffffffffffffffffffffffffffffffffffffffff1673ffffffffffffffffffffffffffffffffffffffff166108fc600286815481101515610af657fe5b90600052602060002090600c0201600601549081150290604051600060405180830381858888f193505050501515610b2d57600080fd5b610dbc565b600284815481101515610b4157fe5b90600052602060002090600c0201600b0160009054906101000a900473ffffffffffffffffffffffffffffffffffffffff1673ffffffffffffffffffffffffffffffffffffffff166108fc600286815481101515610b9b57fe5b90600052602060002090600c020160060154600287815481101515610bbc57fe5b90600052602060002090600c020160040154600288815481101515610bdd57fe5b90600052602060002090600c02016005015403600288815481101515610bff57fe5b90600052602060002090600c0201600401548703811515610c1c57fe5b04029081150290604051600060405180830381858888f193505050501515610c4357600080fd5b600284815481101515610c5257fe5b90600052602060002090600c020160060154600285815481101515610c7357fe5b90600052602060002090600c020160040154600286815481101515610c9457fe5b90600052602060002090600c02016005015403600286815481101515610cb657fe5b90600052602060002090600c0201600401548503811515610cd357fe5b0402600285815481101515610ce457fe5b90600052602060002090600c02016006015403600285815481101515610d0657fe5b90600052602060002090600c020160060181905550600284815481101515610d2a57fe5b90600052602060002090600c020160090160009054906101000a900473ffffffffffffffffffffffffffffffffffffffff1673ffffffffffffffffffffffffffffffffffffffff166108fc600286815481101515610d8457fe5b90600052602060002090600c0201600601549081150290604051600060405180830381858888f193505050501515610dbb57600080fd5b5b5b6003600285815481101515610dce57fe5b90600052602060002090600c020160000160006101000a81548160ff02191690836003811115610dfa57fe5b021790555050505050565b600160009054906101000a900473ffffffffffffffffffffffffffffffffffffffff1681565b6000600280549050905090565b6000600282815481101515610e4957fe5b90600052602060002090600c0201600101549050919050565b60008110158015610e735750600281105b1515610e7e57600080fd5b8634141515610e8c57600080fd5b60028054806001018281610ea09190611154565b91600052602060002090600c020160006101806040519081016040528060006003811115610eca57fe5b8152602001428152602001600081526020018e81526020018d81526020018c81526020018b8152602001856002811115610f0057fe5b6002811115610f0b57fe5b81526020018a81526020018973ffffffffffffffffffffffffffffffffffffffff1681526020018881526020018773ffffffffffffffffffffffffffffffffffffffff16815250909190915060008201518160000160006101000a81548160ff02191690836003811115610f7b57fe5b02179055506020820151816001015560408201518160020155606082015181600301556080820151816004015560a0820151816005015560c0820151816006015560e08201518160070160006101000a81548160ff02191690836002811115610fe057fe5b0217905550610100820151816008019080519060200190611002929190611186565b506101208201518160090160006101000a81548173ffffffffffffffffffffffffffffffffffffffff021916908373ffffffffffffffffffffffffffffffffffffffff16021790555061014082015181600a019080519060200190611068929190611186565b5061016082015181600b0160006101000a81548173ffffffffffffffffffffffffffffffffffffffff021916908373ffffffffffffffffffffffffffffffffffffffff160217905550505050620151808b02420160026001600280549050038154811015156110d357fe5b90600052602060002090600c0201600201819055506001600280549050033373ffffffffffffffffffffffffffffffffffffffff167fcd90b99d62d1fe04456025e59bf0dcdbd54ea65652aef42d7ed0425a932ff2d94285604051808381526020018281526020019250505060405180910390a35050505050505050505050565b81548183558181151161118157600c0281600c0283600052602060002091820191016111809190611206565b5b505050565b828054600181600116156101000203166002900490600052602060002090601f016020900481019282601f106111c757805160ff19168380011785556111f5565b828001600101855582156111f5579182015b828111156111f45782518255916020019190600101906111d9565b5b50905061120291906112eb565b5090565b6112e891905b808211156112e457600080820160006101000a81549060ff02191690556001820160009055600282016000905560038201600090556004820160009055600582016000905560068201600090556007820160006101000a81549060ff021916905560088201600061127d9190611310565b6009820160006101000a81549073ffffffffffffffffffffffffffffffffffffffff0219169055600a820160006112b49190611310565b600b820160006101000a81549073ffffffffffffffffffffffffffffffffffffffff021916905550600c0161120c565b5090565b90565b61130d91905b808211156113095760008160009055506001016112f1565b5090565b90565b50805460018160011615610100020316600290046000825580601f106113365750611355565b601f01602090049060005260206000209081019061135491906112eb565b5b505600a165627a7a7230582031505c31a71357b9b4d39dfb6648265c09c3e431a6a309649f9ca9f96a92180f0029",
  "source": "pragma solidity ^0.4.15;\n\ncontract MercatusDeals {\n  uint dealsCount;\n  address public be = 0x10367bD202112F862d715D093C0B78E26BEcdc9C;\n  enum state { paid, verified, halted, finished}\n  enum currencyType { USDT, BTC, ETH}\n  struct Deal {\n    state  currentState;\n    uint  start;\n    uint  deadline;\n    uint  maxLoss;\n    uint  startBalance;\n    uint  targetBalance;\n    uint  amount;\n    currencyType  currency;\n    string  investor;\n    address  investorAddress;\n    string  trader;\n    address  traderAddress;\n  }\n  Deal[] public deals;\n  function MercatusDeals() payable{}\n  modifier onlyBe() {\n   require(msg.sender == be);\n   _;\n }\n  modifier inState(uint dealId, state s) {\n   require(deals[dealId].currentState == s);\n   _;\n }\n function getState(uint dealId) public constant returns (uint)  {\n   return uint(deals[dealId].currentState);\n }\n function getStart(uint dealId) public constant returns (uint)  {\n   return deals[dealId].start;\n }\n function setVerified(uint dealId) public  onlyBe inState(dealId, state.paid) {\n     deals[dealId].currentState = state.verified;\n}\n\n function setHalted(uint dealId) public  onlyBe {\n     require(deals[dealId].currentState == state.paid || deals[dealId].currentState == state.verified);\n     deals[dealId].traderAddress.transfer(deals[dealId].amount);\n     deals[dealId].currentState = state.halted;\n}\n function setFinished(uint dealId, uint finishAmount) public  onlyBe inState(dealId, state.verified) {\n     if(finishAmount <= deals[dealId].startBalance){\n       deals[dealId].investorAddress.transfer(deals[dealId].amount);\n     }else if(finishAmount>deals[dealId].targetBalance){\n       deals[dealId].traderAddress.transfer(deals[dealId].amount);\n     }\n     else{\n       deals[dealId].traderAddress.transfer(((finishAmount-deals[dealId].startBalance)/(deals[dealId].targetBalance-deals[dealId].startBalance))*deals[dealId].amount);\n       deals[dealId].amount = deals[dealId].amount - ((finishAmount-deals[dealId].startBalance)/(deals[dealId].targetBalance-deals[dealId].startBalance))*deals[dealId].amount;\n       deals[dealId].investorAddress.transfer(deals[dealId].amount);\n     }\n     deals[dealId].currentState = state.finished;\n}\n    function getDealsCount() public constant returns (uint){\n        return deals.length;\n    }\nfunction () public payable {\n}\n    function makeDeal(uint _duration, uint _maxLoss, uint _startBalance, uint _targetBalance, uint _amount,  string _investor, address _investorAddress, string _trader, address _traderAddress, uint offer, uint _currency)\n    payable public {\n      require( _currency >= 0 &&  _currency < 2  );\n      require(msg.value == _amount);\n        deals.push(Deal({\n            currentState: state.paid,\n            start: now,\n            deadline: 0,\n            maxLoss: _maxLoss,\n            startBalance: _startBalance,\n            targetBalance: _targetBalance,\n            amount: _amount,\n            currency: currencyType(_currency),\n            investor: _investor,\n            investorAddress: _investorAddress,\n            trader: _trader,\n            traderAddress: _traderAddress\n          }));\n          deals[deals.length-1].deadline = now +  _duration * 86400;\n        spawnInstance(msg.sender,deals.length-1, now, offer);\n    }\n    event spawnInstance(address indexed from, uint indexed dealId, uint start, uint offer);\n}\n",
  "sourcePath": "/root/repos/Contracts/contracts/MercatusDeals.sol",
  "compiler": {
    "name": "solc",
    "version": "0.4.18+commit.9cf6e910.Emscripten.clang"
  },
  "schemaVersion": "1.0.1",
  "updatedAt": "2018-01-28T23:20:59.407Z"
}